:020000021000EC
:1080000000400020818C0100BD8C0100BF8C01006C
:108010000000000000000000000000000000000060
:10802000000000000000000000000000C18C010002
:108030000000000000000000C38C0100C58C01009E
:10804000C78C0100C78C01008D920100C78C010014
:10805000C78C010000000000C78C0100C78C010024
:10806000C78C01005D930100FD8D0100C78C0100EC
:10807000C78C0100C78C0100C78C0100C78C0100B0
:10808000C78C0100C78C0100C78C0100C78C0100A0
:10809000C78C0100C78C0100C78C0100C78C010090
:1080A000C78C0100C78C0100000000000000000028
:1080B00000000000000000000000000000000000C0
:1080C00010B5064C2378002B07D1054B002B02D0AE
:1080D000044800E000BF0123237010BDA020002051
:1080E0000000000050BF0100084B10B5002B03D06A
:1080F0000749084800E000BF07480368002B00D18B
:1081000010BD064B002BFBD09847F9E7000000009C
:10811000A420002050BF0100942000200000000097
:10812000164B002B00D1144B9D46402292029A1A06
:10813000924600218B460F461348144A121A03F048
:10814000C9F90F4B002B00D098470E4B002B00D0E5
:1081500098470020002104000D000D48002802D09F
:108160000C4800E000BF02F05BFA2000290003F099
:1081700003F802F03FFAC04600000800004000206B
:10818000000000000000000098200020F8210020DE
:10819000000000000000000010B50400034B08338D
:1081A000036000F079FB200010BDC046F0B601006E
:1081B000F7B5070000250E0001930E4B0837083372
:1081C0000400858085710360290000923800182220
:1081D00003F080F931003800019A03F03CF86B4657
:1081E0001B88E671A380631CDD77200000F036FB5E
:1081F0002000FEBDF0B60100002310B5034C8371D2
:10820000046081800273836010BDC04610B7010016
:1082100010B5837904005B0707D5A02300210B4A22
:10822000DB00D150806800F075FAA3791B0709D5EF
:10823000A06802F0C7FE0C23E356834202D1A06877
:1082400000F0B6FB0023A360A37110BD00700040D6
:1082500070B50D00040002F009FE280002F06EF96E
:10826000034901F09DFC011CA06800F0BFFB70BD3C
:1082700000007F4330B5CFB000230122112105A8B3
:10828000FFF796FF1A21002302220EA8FFF790FFA6
:1082900017A800F0BFF82449684600F0B5F9684611
:1082A00000F000FA05A8F12402F0BDFD6C443CADDD
:1082B000002812D02378002B05D017A800F060F911
:1082C000684600F0EFF92B78002BEBD117A800F0EF
:1082D000E3F8684600F0D0F9E4E70EA802F0A3FD49
:1082E0002B78002811D0002B05D017A800F0FEF83D
:1082F000684600F0D7F92378002BD3D117A800F0F7
:1083000011F9684602F0FFFDCCE7002B05D017A855
:1083100000F0ECF8684600F0C5F92378002BC1D0D6
:1083200017A800F02DF9BAE720B70100F7B504004F
:10833000043002F083FDA36AE26A0190934208D000
:10834000002B02D06A4612791A70A36A0133A36225
:1083500031E0626A9B1A5A1C02D11A4803F087F86E
:108360000125002B07D05D00AB4202D82F1E06D09E
:1083700001E001256D42280000F0AAF90700A36A78
:10838000626A9B1AFB18002B02D06A4612791A7097
:10839000616AA36A5E1A03D03200380003F085F8E0
:1083A000606A0136BE19002801D000F0B3F97D19CA
:1083B0006762A662E5622000019A03499C3002F0E0
:1083C00015FEF7BD5ABB010076BB010010B50400D5
:1083D000044B036002F06DFE200000F025FC20003D
:1083E00010BDC04680B7010010B50400084B08332B
:1083F00003606030FFF7EAFF20003030FFF7E6FF50
:10840000606A002801D000F085F9200010BDC04648
:1084100038B7010070B504001B4B0322083308C0B5
:108420000721FFF7E9FE2000022208211430002571
:10843000FFF7E2FE20006562A562E562303000F0E1
:10844000DDFB2000114EA5642663E565603000F079
:10845000D5FB2666230026008C339C36A5673000AA
:108460001D60DD601922182100F0A0FB2300084ADE
:1084700090331A601D715D7130003C22054902F095
:10848000B5FD200070BDC04638B7010080B70100BF
:1084900020A107007EBB010070B5050094352E7841
:1084A00004009C30002E14D1636A0C49A36202F0D0
:1084B00090FD2300200090331968094BA464E36405
:1084C000084B2665E365303002F0FBFD01232B707D
:1084D00002E0054902F07DFD70BDC04695BB01007C
:1084E0002D830100A3AE0100A7BB010070B50500FC
:1084F000040094352B789C34002B09D0303002F0E6
:10850000D8FD0649200002F064FD00232B7003E033
:108510000349200002F05DFD70BDC046C3BB0100F1
:10852000D4BB010070B5050095352E7804009C3051
:10853000002E18D12300626A98331A600C4902F0A9
:1085400048FD23002000903319680A4B0A4AE3676C
:10855000231DA467DE6788331A60603002F0B1FD26
:1085600001232B7002E0054902F033FD70BDC046C7
:10857000FCBB0100B9850100A3AE01000CBC0100E9
:1085800070B50500040095352B789C34002B09D07C
:10859000603002F08EFD0649200002F01AFD002333
:1085A0002B7003E00349200002F013FD70BDC046AC
:1085B00026BC010035BC010070B5050098352B685C
:1085C000826A040093420ED019781430FFF740FEFF
:1085D00020002B689C301A78044902F007FD2B68B4
:1085E00001332B6001E0FFF7CBFF70BD5BBC0100E6
:1085F00010B50400034B08330360406800F08AF8AC
:10860000200010BD48B701001A4B70B50833036055
:10861000002304008160C360036101208D68AB42C8
:1086200006DA02009A402669013332432261F6E7F6
:10863000C86800230121834206DA0A009A40E568EF
:1086400001332A43E260F6E7142000F041F81122DA
:10865000A368E1689A561B7C91400A0021695BB2CD
:10866000994005000A430123002100F091FB656059
:10867000200070BD48B70100C368094910B5194012
:108680000A0083685B7C5BB29A40036940685903C7
:108690008023DB011940114302F0B5FE10BDC04636
:1086A00004FEFFFFC368094910B519400A0083683A
:1086B0005B7C5BB29A40036940685903E0231B026C
:1086C0001940114302F09FFE10BDC04607FEFFFF98
:1086D00070B5050000240D4B1B789C4209DA0C494B
:1086E000E300C918280002F021FC00280AD1013457
:1086F000F1E7280001F0BAFF041E04D1142000F0B5
:1087000095F900E00400200070BDC046E62100207D
:10871000BC20002070B5002818D00D4B0D491C78E6
:108720000023A34210DADA005558A8420AD98A1861
:108730005268904206D28023043802681B06134315
:10874000036003E00133ECE701F09AFF70BDC0461F
:10875000E6210020BC20002070B5051E15DD0C4B65
:108760000C4E1A681C00002A02D0306802F0A1FCEE
:10877000FA21256000243068074B89008361C462B8
:10878000694302F09EFC200000E0044870BDC04632
:10879000FC200020CC2000203988010017FCFFFFBE
:1087A000F8B5114F06003D68002D0AD13020FFF7C3
:1087B0008FFF040000F022FA0C4BA5612360E562F4
:1087C0003C600B4D2B68002B09D11020FFF780FF78
:1087D000040002F0AAFC20002C6002F080FC3000B3
:1087E000FFF7BAFFF8BDC046CC20002080B70100DB
:1087F000F820002070B50D4C2368002B03D00C4BE3
:108800001B68002B02D10620FFF7CAFF206802F088
:108810007DFC02000749C3170D684E685219734169
:1088200020680A604B6002F077FC70BDF8200020E1
:10883000CC2000209820002010B5FFF7DBFF00249B
:10884000054BE058002802D003681B6898470434A1
:10885000282CF5D110BDC046D02000200B4B10B500
:108860001B680400002B03D0094B1B68002B02D1AE
:108870000620FFF795FF0023064A99008858002834
:1088800001D00133F9E78C5010BDC046F82000201C
:10889000CC200020D0200020002310B5044A9900ED
:1088A0008C58844201D00133F9E70020885010BD74
:1088B000D020002030B50500A0240123C135FF35AC
:1088C000E405AD002B511D0083408D400A49000294
:1088D00065506350094B92001843094BD118A223ED
:1088E000DB00C850C046C046C046064B0021D21827
:1088F000A823DB00D15030BD0C05000003000300AD
:108900000060004000A00040F7B5274E0191356897
:1089100007002649002D08D07368002B04D0B368E7
:108920000225002B0FD100E0012508200D70FFF774
:10893000CFFE3900040000F0BFFB6B461B79AD0091
:10894000A37074512EE00B78581C9C46022800DD61
:10895000002003009C00634514D00125124A1059E1
:1089600082782A4009D00B706B461B7939008370DE
:1089700002F01DFB0C4B1C5914E0581C130002287C
:10898000E8DCE6E701233059827813401C1E09D049
:108990006B461B793900837002F009FB034B1B788F
:1089A0009B00F4582000FEBD002100207420002010
:1089B00070B5002403780B4A4533FF339B009C506D
:1089C000050000F041FB0123AB70074EA3599D4207
:1089D00004D12800FFF79EFE0023A35104340C2C81
:1089E000F3D170BD006000400021002070B50D1C67
:1089F00006000021281C01F093F8041E06D1300067
:108A0000291C00F0B9FA7560200000E0004870BD34
:108A100017FCFFFFBFF34F8F024A034BDA60BFF32F
:108A20004F8FFEE70400FA0500ED00E0F0B595B0C9
:108A30001822002106000EA802F04CFD13210EA8FA
:108A400002F004FC03210EA802F096FC01224A4B1E
:108A500000921B68002B01D0DBB200930123474A30
:108A6000002109A800F094F9454B9E4200D9002648
:108A700072B6444B1022002105A81D6802F02AFDA1
:108A8000414B642130000593052400F04BFF604307
:108A90005030281806900A21300000F043FF0A21C8
:108AA00001F026F8614350316918079130000A211E
:108AB00001F01EF84C43210050316C1880260894B8
:108AC0000024B601009B002B3CD004AD0027032CF2
:108AD00002D180260024B6016B682C4A0293630001
:108AE0000133D318002201921021581E0078014151
:108AF000039119788C4660460299095C03980142FB
:108B000004D00120904001990143019101320633C4
:108B1000092AE9D1019B2A68D9431D4B0901194053
:108B2000029B934203D1312F01DC002100E031434D
:108B300009A802F068FCFA23139A0F99DB00106869
:108B4000014201D1FFF766FF013B002BF7D1FA2369
:108B5000013401377600E4B25B009F42B7D104359F
:108B600008ABAB42B2D1044B1B68002BAAD0009BD0
:108B7000013BDBB20093A5E70C210020F0FF0000D1
:108B8000E70300000020002099BC010063BC010045
:108B9000F01F0000034A044B12681A607E225A60DC
:108BA0007047C046002000201021002010B50400AE
:108BB00000F006F8014B2000236010BD60B70100F3
:108BC0000C4B70B50360002343608360C360036295
:108BD00043628363962304009B01051DC363280041
:108BE00000F0F8FA28002200034900F075FB20008D
:108BF00070BDC04670B7010049B00100084B10B508
:108C000008330360002343608360C360040000F006
:108C10002BF80449206102F035FB200010BDC0464E
:108C20008CB7010047B1010010B50400034B0833B5
:108C3000036002F095FA200010BDC0468CB7010019
:108C4000074A13681818EFF30881884205D30C22ED
:108C50000120044B40421A6001E010601800704788
:108C600004200020F421002000487047B4B7010020
:108C700010B5024802F00FFB10BDC046B4B70100AA
:108C80000848026803210A4302600749074A084B63
:108C90009B1A03DD043BC858D050FBDC05488047D5
:108CA00005480047240500405CBF0100002000206B
:108CB00094200020C594010021810100FEE7FEE719
:108CC000FEE7FEE7FEE7FEE770B50E000F4C05007D
:108CD0002100300000F0E6FB210028600023CB5685
:108CE0005A1C05D09E4201D18B6802E00C31F5E799
:108CF0000023A0210120064AC9002B715050682191
:108D00001B020B430349535070BDC046BCB7010062
:108D100000700040040500000E4B0F4A10B5995832
:108D200000219950995899509C580C4921409950CC
:108D300001799C5809022143995080200122C000EA
:108D40001A6019581142FCD1A123024ADB00D05805
:108D5000C0B210BD0070004004050000FF00FFFF1E
:108D600001704B1C0AD001238B404360044BC3604D
:108D7000044B0361044B4361044B83607047C0465E
:108D8000080500500C050050100500501405005057
:108D90000261064A10B54260054A01738260054AC5
:108DA0001900026002F00BFB10BDC0460405005024
:108DB000100500500007005003780D4A9B009B18D7
:108DC000A22210B58024D200985864032043985002
:108DD000002902D09958074806E0985806490140F2
:108DE00080209950995840020143995010BDC046C7
:108DF0000060004003000300FFFFFCFF0021114A58
:108E0000114B1165114A1188114A9950114A117874
:108E1000002904D010490888A821C9005850517869
:108E2000002903D00C4948880C4958509278002AF0
:108E300004D0094A9188A922D200995001221A60CF
:108E40007047C046FCA0004000A000406C200020FD
:108E50004C050000E72100206E20002044050000A2
:108E60000022154B10B55A6090420ED10121134AD1
:108E700098509950124A053198500432985008324F
:108E80009950104A1188104A9950104A41005130A7
:108E90008A5AFF3080001A50C2200D4980000C58B9
:108EA0000C4A22408024E40322430A508022D2004C
:108EB0000A6001221A6010BD00A00040FC0F0000F3
:108EC000040500006C2000204C0500006E200020EE
:108ED00000E100E0FFFF00FF012330B51D000200AC
:108EE000A0248540C132FF32E405920013510A4AA2
:108EF0008900A550094A0A4C8918A222D2008C5038
:108F0000C046C046C0460B60064B0002184388505E
:108F1000C046C046C04630BD0C05000000600040A1
:108F2000031F02000300030010B5002A02D0FFF760
:108F300043FF17E003780C4A9B009B18A222D20043
:108F40009C580A4820409850002902D09958084857
:108F500006E09858074901408020995099588002AE
:108F60000143995010BDC04600600040FFFFEFFF75
:108F700003000300FFFFFCFFF7B500222C4B2D4C34
:108F80001A6501230E1C070063600021301C00F0ED
:108F9000C7FD0194002809D1FE21301C890500F08D
:108FA000D3FD002803D0FE26B60500E000263D785C
:108FB000214B6D00EB5A0093204B1C88200001F0E0
:108FC00075FA311C00F0B6FF00F0D2FD1C4B1A4AB6
:108FD00081B2E952A952002903D10122EA520A00C2
:108FE00013E08C4206D1013C00213800EC52FFF71F
:108FF000E3FE0DE0009B002B01D0A34208D1009BB3
:1090000001211A1B54426241D2B23800FFF78CFF93
:109010008022C123019912039B00CA500199094A79
:10902000053BFF3BCA500123019A1360F7BDC046C0
:10903000FCA0004000A00040E02100206C200020A7
:109040006E20002008080000002110B50378034AB4
:10905000D1540021FFF790FF10BDC046E72100204A
:1090600003230020CA1713400E4A59181065012225
:109070000D4B0E485A6089100D4A814202D90121D8
:10908000494202E0042900D8052111808021C12233
:109090000903920099500749053AFF3A9950012275
:1090A0001A607047FCA0004000A00040FFFF0000D5
:1090B0006C20002008080000F8B50E0005002D49BE
:1090C000300000F0EFF92C4BC4B2C0B2195C0122A1
:1090D00000290FD05978002902D15A7014000AE0F3
:1090E0009978002902D19A70022404E0234802F002
:1090F00084F800E01A5430006E7021002C70FFF7E5
:10910000EBFE1F4B6200D2B21E48A100C918D3006B
:109110001B181D481B4E19501C48571C19501C4841
:10912000A1000918A220C0001950A3211948C900A4
:109130005850A020C00033589C4601231900B94064
:109140000F00190091400A0061463A430A43325029
:10915000002C02D18022D20593672000FFF780FE09
:1091600028000D49FFF77CFF28000021FFF704FFCE
:10917000F8BDC04610B80100E721002079BE01000B
:109180000060004000F00140140500001C050000D4
:1091900040A100404CA10040204E0000012310B52A
:1091A0000A4ADC00A4588C4207DD013BDB00D318DF
:1091B0005A680168064BCA5007E00133112BF0D101
:1091C00080210268024B4905D15010BD78B90100D9
:1091D00024050000F8B50F000121254BB9400360BC
:1091E000A023244CDB0516001A5905000A438021F0
:1091F0001A511A5909060A430121B1401A511A5944
:109200008A4396211A511A598901520052081A515B
:10921000FFF7C4FF002204202B6817495A506C390D
:1092200058500121996019601900FC31CA60134936
:109230005A506A6014391F325A5011495F50091848
:109240005A501E517B1C03D00321380002F0A7F8AE
:10925000731C03D00321300002F0A1F80122094B56
:1092600029001A600848073202F016F9F8BDC04616
:1092700000200040140500006C0500001C050000E3
:109280000C05000020210020EC210020C1230E4A03
:109290009B00D15810B5090603D50C49096A00296D
:1092A00008D1D3585B070DD5084B0021DB68002B94
:1092B00001D107E00121064B1868002802D0054BB8
:1092C0001B68984710BDC04600200040FC200040AD
:1092D0002421002028210020034B19604368034902
:1092E0009B005A507047C0462821002024210020AE
:1092F00003681A00FC32106A0128FCD100201062B9
:10930000014AC9B2995070471C05000001230E4A5A
:1093100010B5936480230D499B00CB670C49140062
:10932000086D0C4A002804D000200865116801313E
:10933000116009490B60A923DB001068E358010C98
:109340009BB20004184310BD0090004004E100E00F
:10935000FC9000403021002000E100E0F8B50F4C07
:10936000636C002B0FD000270D4E67643378BB422F
:1093700009D00C4B1D68FFF7C9FF2D1ABD4202DC56
:109380003770FFF775FC236D002B06D0064A136873
:10939000013313600022014B1A65F8BDFC900040B8
:1093A000EB2100202C210020302100201B4970B52A
:1093B0000C78002C30D10120194B1A4A58605460A7
:1093C0008024E405206050680028FCD0002201249D
:1093D000042515481A500C30DC601D5008381A500E
:1093E0001248C2251A50C1228020920000039850D2
:1093F0008020400298500E48AD0046590D4A324038
:10940000C0263602324342518022893D9200FF3D00
:10941000425102601C600C7070BDC046EA21002001
:1094200000900040FC000040040500004C050000D6
:1094300000E100E0FF00FFFF044B10B51B78002B9C
:1094400001D1FFF7B3FFFFF761FF10BDEA21002054
:10945000104B70B51B780400002B01D1FFF7A6FF5D
:109460000D4D0E4E2B78002B02D033689C4210D04D
:10947000FFF74CFF201A0A2803DCFFF747FF0A30EA
:10948000040001232B70A823054A3460DB00A4B23A
:10949000D45070BDEA210020EB2100202C210020B7
:1094A0000090004010B50400431C07D001F0B5FF48
:1094B0000400431C02D1024801F09FFE200010BDB1
:1094C000DDBE0100234A10B513781100012B19D11C
:1094D000214B1B681B0715D1204BE0241A68F02391
:1094E0001000184022420BD11D4A12681A4209D1BD
:1094F0001C4A1D4B1A6080221C4B12021A6001E0AC
:109500003028F1D00B68DBB2012B0DD1124A126862
:10951000120709D1F021114A12680A40402A03D1EA
:109520000F4A12680A420DD08022A3230021D205DF
:10953000DB00D1500E4B9960013191609A68002A8E
:10954000FCD005E0C1228021D200C9058B50EBE799
:1095500010BDC046E00F00F0E40F00F0E80F00F08F
:10956000EC0F00F0DFFF07C004050040186C00405E
:10957000FC000040014B18687047C04634210020B1
:109580000123244A1168194200D11360224A11684C
:10959000194201D1012313600123204A11681942A5
:1095A00000D113601E4A1168194201D101231360D2
:1095B00001231C4A1168194200D113601A4A11682C
:1095C000194201D1012313600123184A116819427D
:1095D00000D11360164A1168194201D101231360AA
:1095E0000123144A1168194200D11360124A11680C
:1095F000194201D1012313600123104A1168194255
:1096000000D113600E4A1168194201D10123136081
:109610007047C04664210020602100205C210020AA
:109620005821002054210020502100204C210020EE
:109630004821002044210020402100203C2100201E
:10964000382100200123184A1168194200D1136003
:10965000164A1168194201D1012313600123144AEB
:109660001168194200D11360124A1168194201D1E0
:10967000012313600123104A1168194200D11360BD
:109680000E4A1168194201D10123136001230C4ACB
:109690001168194200D113600A4A1168194201D1B8
:1096A000012313607047C0468421002080210020E0
:1096B0007C210020782100207421002070210020CE
:1096C0006C210020682100200123184A11681942EA
:1096D00000D11360164A1168194201D101231360A9
:1096E0000123144A1168194200D11360124A11680B
:1096F000194201D1012313600123104A1168194254
:1097000000D113600E4A1168194201D10123136080
:1097100001230C4A1168194200D113600A4A1168EA
:10972000194201D1012313607047C046A4210020D3
:10973000A02100209C2100209821002094210020BD
:10974000902100208C210020882100200123244A20
:109750001168194200D11360224A1168194201D1DF
:10976000012313600123204A1168194200D11360BC
:109770001E4A1168194201D10123136001231C4ABA
:109780001168194200D113601A4A1168194201D1B7
:10979000012313600123184A1168194200D1136094
:1097A000164A1168194201D1012313600123144A9A
:1097B0001168194200D11360124A1168194201D18F
:1097C000012313600123104A1168194200D113606C
:1097D0000E4A1168194201D1012313607047C04637
:1097E000D4210020D0210020CC210020C82100203D
:1097F000C4210020C0210020BC210020B82100206D
:10980000B4210020B0210020AC210020A82100209C
:10981000002243088B4274D303098B425FD3030AAF
:109820008B4244D3030B8B4228D3030C8B420DD3C2
:10983000FF22090212BA030C8B4202D31212090250
:1098400065D0030B8B4219D300E0090AC30B8B428E
:1098500001D3CB03C01A5241830B8B4201D38B033C
:10986000C01A5241430B8B4201D34B03C01A5241E1
:10987000030B8B4201D30B03C01A5241C30A8B4224
:1098800001D3CB02C01A5241830A8B4201D38B020F
:10989000C01A5241430A8B4201D34B02C01A5241B3
:1098A000030A8B4201D30B02C01A5241CDD2C30925
:1098B0008B4201D3CB01C01A524183098B4201D3A1
:1098C0008B01C01A524143098B4201D34B01C01A8C
:1098D000524103098B4201D30B01C01A5241C30804
:1098E0008B4201D3CB00C01A524183088B4201D373
:1098F0008B00C01A524143088B4201D34B00C01A5F
:109900005241411A00D20146524110467047FFE7CA
:1099100001B5002000F0F0F802BDC0460029F7D0E4
:1099200076E7704703460B437FD4002243088B42FF
:1099300074D303098B425FD3030A8B4244D3030BD6
:109940008B4228D3030C8B420DD3FF22090212BA9B
:10995000030C8B4202D31212090265D0030B8B4217
:1099600019D300E0090AC30B8B4201D3CB03C01A01
:109970005241830B8B4201D38B03C01A5241430BDC
:109980008B4201D34B03C01A5241030B8B4201D3CC
:109990000B03C01A5241C30A8B4201D3CB02C01A37
:1099A0005241830A8B4201D38B02C01A5241430AAF
:1099B0008B4201D34B02C01A5241030A8B4201D39E
:1099C0000B02C01A5241CDD2C3098B4201D3CB0145
:1099D000C01A524183098B4201D38B01C01A5241F4
:1099E00043098B4201D34B01C01A524103098B42F8
:1099F00001D30B01C01A5241C3088B4201D3CB00E3
:109A0000C01A524183088B4201D38B00C01A5241C5
:109A100043088B4201D34B00C01A5241411A00D275
:109A200001465241104670475DE0CA0F00D04942DE
:109A3000031000D34042534000229C4603098B424E
:109A40002DD3030A8B4212D3FC22890112BA030AD6
:109A50008B420CD3890192118B4208D38901921158
:109A60008B4204D389013AD0921100E08909C309DD
:109A70008B4201D3CB01C01A524183098B4201D3DF
:109A80008B01C01A524143098B4201D34B01C01ACA
:109A9000524103098B4201D30B01C01A5241C30842
:109AA0008B4201D3CB00C01A524183088B4201D3B1
:109AB0008B00C01A5241D9D243088B4201D34B00CC
:109AC000C01A5241411A00D20146634652415B100E
:109AD000104601D34042002B00D5494270476346EF
:109AE0005B1000D3404201B5002000F005F802BD34
:109AF0000029F8D016E770477047C0468446081C16
:109B00006146FFE71FB500F0D1F9002801D400211C
:109B1000C8421FBD10B500F05DF94042013010BDD4
:109B200010B500F0C3F9002801DB002010BD0120B2
:109B300010BDC04610B500F0B9F9002801DD0020C5
:109B400010BD012010BDC04610B500F06BF9002813
:109B500001DC002010BD012010BDC04610B500F092
:109B600061F9002801DA002010BD012010BDC046B7
:109B70009E2110B5C905041CFFF7F0FF002803D192
:109B8000201C00F071FC10BD9E21201CC90500F0B6
:109B9000E5FA00F069FC80231B069C466044F2E76E
:109BA000F0B5564644465F464D46F0B44402460082
:109BB000C70F83B08846650A360EBA463DD0FF2EE1
:109BC00022D00023EC00802599469B46ED042543D6
:109BD0007F3E43465C025800DB0F640A000E984645
:109BE00036D0FF2830D080230021E400DB041C4362
:109BF0007F38301A0190484642460843724E800032
:109C000030587A4013008746002D44D108239946E6
:109C1000063B9B46DDE70122FF2000241A40640238
:109C2000C305640AD2071C431443200003B03CBCA4
:109C300090469946A246AB46F0BD002D20D10423A4
:109C40009946033B9B46C4E7002C17D1022102E052
:109C5000002C0AD10121321A01924A4643460A4396
:109C60005A48920082587B409746200000F0A4FC9E
:109C7000431F76309C4040420021BAE70321B8E7F9
:109C8000280000F099FC431F9D4000237630464297
:109C900099469B469DE70C239946093B9B4698E7CE
:109CA00080240022E403FF20B9E70024C2468B464B
:109CB0005A465346022AAED0032A7DD0012A31D11A
:109CC000012200201A400024A9E70122101A1B28B3
:109CD00056DD1A4000200024A1E78023DB031D424B
:109CE0004BD18023DB032B435C02640A3A00FF2044
:109CF00095E76D016001854230D2019A0024013A56
:109D000001921B220127290064006D00002901DB5C
:109D1000A84201D82D1A3C43013A002AF3D16A1E09
:109D200095412C4301987F300028CEDD620704D096
:109D30000F222240042A00D00434220103D5244AF1
:109D4000019814408030FE2800DD64E70122A40160
:109D5000640AC0B21A4062E72C00A9E72D1A1A2241
:109D60000124CFE76B02BCD500248023DB031C4316
:109D70006402640A4246FF2051E71C42B3D1F4E773
:109D800021002022C140101A8440621E94410C43DD
:109D9000620704D00F222240042A00D0043462015A
:109DA00004D5012201201A40002438E70122A40131
:109DB000640A1A40002032E78023DB031C4364025C
:109DC000640A5246FF202AE700BA010040BA0100A7
:109DD000FFFFFFF7430270B542004C005D0AC30F5E
:109DE0004802120E460A240EC90FFF2A0FD0FF2C7C
:109DF00011D00120A24200D070BDB542FCD18B42EF
:109E00000DD0002AF8D12800431E9841F4E7012024
:109E1000002DF1D1EBE70120002EEDD1E9E7002084
:109E2000EAE7C0464302F0B542005D0AC30F4802AC
:109E3000440A4800120E000EC90FFF2A1FD0FF2847
:109E400022D0002A09D16E426E4100280FD1002C89
:109E50000DD10020002D09D005E0002801D1002CF3
:109E600001D08B4213D0584201231843F0BD002E7D
:109E7000F7D048424141012049420843F6E7002D0E
:109E8000DDD002204042F1E7002CDAD0F9E782422F
:109E9000E9DC04DBA542E6D80020A542E6D2584220
:109EA000434101205B421843E0E7C0464302F0B55E
:109EB00042004C005E0AC30F4802120E450A240EEF
:109EC000C90FFF2A17D0FF2C19D0002A0BD17042DE
:109ED0007041002C17D0002807D048424141012092
:109EE00049420843F0BD002C13D08B4214D0584295
:109EF00001231843F6E70220002EF3D1E3E7022006
:109F0000002DEFD1E1E7002DE5D10020002EE9D0B2
:109F1000EDE7002DE9D1EAE7A242E8DC04DBAE423E
:109F2000E5D80020AE42DDD25842434101205B42D9
:109F30001843D7E7F0B557464E4645464300E0B4D0
:109F400046028846760A1F0EC40F002F47D0FF2F07
:109F500025D0002380259A469946F600ED042E432D
:109F60007F3F434642465D02D20F5B006D0A1B0EE7
:109F7000904640D0FF2B39D080220020ED00D20443
:109F800015437F3BFB1842465746591C62408C469E
:109F900007430F2F5CD86F49BF00C9598F46002E69
:109FA00045D108239A46063B9946DAE742460228FD
:109FB0002DD0032800D1C3E0012800D0A2E0002565
:109FC00000260240D4B27602ED05760A2E43E4075D
:109FD000264330001CBC90469946A246F0BD002E98
:109FE0001AD104239A46033B9946BAE72A00511E28
:109FF0008A41901CC6E70120002DC3D0280000F044
:10A00000DBFA431F76309D4043420020BAE701242B
:10A01000FF2514400026D6E7300000F0CDFA431F9C
:10A020009E400023763047429A46994699E70C2392
:10A030009A46093B994694E780260024F603FF25BB
:10A04000C1E735004846B2E7350022004846AEE792
:10A050002904090C0800370C3604360C2C0C794303
:10A06000704367437443060C64183619B14203D930
:10A0700080214902884647440004000C3104091835
:10A080008D01681E8541890E2943350CED19AD01FE
:10A090000D43290104D5012369081D4063460D4382
:10A0A00019007F31002925DD680704D00F202840E2
:10A0B000042800D00435280103D5274980330D40FA
:10A0C0001900FE29A3DC0124AD016E0A1440CDB2B3
:10A0D00079E78020C003064207D0054205D1284316
:10A0E0004602760A4446FF256DE706437602760A65
:10A0F000FF2568E70124611A1B2905DD14400025AE
:10A10000002660E76346CBE72E002023CE40591A95
:10A110008D406B1E9D412E43730704D00F233340A7
:10A12000042B00D00436730104D50124012514400A
:10A13000002648E70124B601760A1440002542E7CC
:10A1400080260124F6032E437602760A1440FF256A
:10A1500039E7C04680BA0100FFFFFFF7F8B54A02B1
:10A160004E0043024400240EC50F9B09360EC90F52
:10A170009209FF2E00D183E001204140A01BA9429B
:10A180005CD0002800DC95E0002E1CD1002A00D015
:10A1900081E05A0704D00F221A40042A00D0043369
:10A1A0005A013BD50134FF2C00D191E001209B01E5
:10A1B0005B0AE4B205405B02E4055B0AED0723435A
:10A1C0002B431800F8BDFF2CE3D08021C9040A43BB
:10A1D0001B2800DD90E016002021C640081A8240AE
:10A1E000511E8A4132439B1A5A0115D59B019E0983
:10A1F000300000F0E1F90538864084426CDC041B35
:10A20000330020200134E340041BA640721E964117
:10A2100000243343BDE70D005A07BCD1DF080123FA
:10A220001D40FF2C33D1002F00D190E08022D203BB
:10A2300013003B435B025B0AFF24BCE700284FDDB1
:10A24000002E2ED0FF2CA4D08025ED042A431B28FD
:10A2500000DD97E016002025C640281A8240501ED7
:10A26000824132439B185A01D5D50134FF2C6DD061
:10A2700001227B481A405B08034013430D0088E726
:10A28000002A00D07AE777E7031EC5D100257B02BC
:10A290005B0AE4B28FE701380028A4D0FF2C97D1E5
:10A2A00077E7002A00D174E701380028DAD0FF2CC4
:10A2B000CDD16EE7002821D1601CC0B2012858DD45
:10A2C00080279E1AFF0437402FD0D61A0D008FE743
:10A2D00001231D4000236EE7624B241A334058E7E8
:10A2E000002851D1601CC6B2012E33DDFF282DD0CD
:10A2F0009B185B0804004CE7012274E7002C1AD07D
:10A30000FF2E1FD08024E404404223431B2800DD9D
:10A3100096E01D002024C540201A8340581E83412A
:10A320002B43D31A34000D005EE7002E00D05FE708
:10A3300000250024ABE7002B44D0C0430028F0D018
:10A34000FF2EE3D11300FF240D0022E70D00FF24B0
:10A35000002330E7002C5DD1002B7DD0002A00D1F6
:10A3600017E79B185A0100D456E73E4A04001340F1
:10A370000FE7002C1ED1002B2FD1002A65D013002F
:10A380000D0006E701226DE7002C1FD1002B59D0EC
:10A39000C04300280BD0FF2E4FD01B285EDC1D00D1
:10A3A0002024C540201A8340581E83412B439B180C
:10A3B000340058E7002B1CD1002A49D013000D00AF
:10A3C000FF24E6E6130034000D00E2E6FF2E34D051
:10A3D0008024E40440422343DFE7002A00D1D8E68A
:10A3E0008027981AFF04074000D14DE7D31A0D00CB
:10A3F000CFE6FF24002A00D1CBE68020DB08C00393
:10A40000034204D0D208024201D113000D00DB0048
:10A41000FF24BEE6002B10D0FF24002A00D1B8E6AE
:10A420008020DB08C003034203D0D208024200D1DF
:10A430001300DB000D00FF24ABE61300FF24A8E6A9
:10A4400001236EE713003400A3E6002700251EE772
:10A4500080270025FF03E9E613009AE60123A6E71B
:10A46000FFFFFF7DFFFFFFFB4302590A4300C20FBE
:10A470001B0E00207E2B0EDD9D2B0DDC80200004AA
:10A480000143952B0BDC9620C31AD9400B00584290
:10A49000002A00D118007047034BD018FBE7963B09
:10A4A00099400B00F3E7C046FFFFFF7F70B500281F
:10A4B00030D0C317C5185D40C40F280000F07CF8E9
:10A4C0009E231B1A962B0DDC9622D21A95406A0207
:10A4D000520AD8B25202C005520AE407024322438C
:10A4E000100070BD992B19DC9922D21A9540124A9E
:10A4F0002A40690704D00F210D40042D00D00432FA
:10A50000510103D50C4B1A409F231B1A9201520A8A
:10A51000D8B2DFE7002400200022DBE705222E006E
:10A52000121AB921D6402A00C91A8A40551EAA41DA
:10A5300035001543DBE7C046FFFFFFFB70B5041E87
:10A5400028D000F039F89E231B1A962B0ADC96229D
:10A55000D21A94406202520AD8B25202520AC0057C
:10A56000104370BD992B18DC9922D21A9440114ADD
:10A570002240610704D00F210C40042C00D004328B
:10A58000510103D50B4B1A409F231B1A9201520A0B
:10A59000D8B2E2E700200022DFE705222500121AE8
:10A5A000B921D5402200C91A8A40541EA2412C006C
:10A5B0001443DCE7FFFFFFFB1C2101231B0498422F
:10A5C00001D3000C10391B0A984201D3000A083944
:10A5D0001B09984201D30009043902A2105C4018FB
:10A5E0007047C0460403020201010101000000009F
:10A5F00000000000084B10B50400002B02D0002121
:10A6000000E000BF054B1868836A002B00D0984714
:10A61000200000F0B9FDC0460000000020BB010092
:10A620000E4B70B500251E000D4CE41AA410A54277
:10A6300004D0AB00F35898470135F8E701F04CF827
:10A64000084B00251E00084CE41AA410A54204D0B3
:10A65000AB00F35898470135F8E770BD782000202B
:10A6600078200020782000209020002010B5034B97
:10A670000100186800F05AF810BDC046682000209C
:10A6800010B5034B0100186800F004F810BDC04677
:10A690006820002070B50500002944D00C1F2368F5
:10A6A000002B00DAE418280000F075FF1E4A13683A
:10A6B0001100002B02D16360146031E0A3420DD978
:10A6C0002268A018834203D118685B688218226050
:10A6D00063600C6024E0A24203D813005A68002A89
:10A6E000F9D11E689819A0420BD121687118581829
:10A6F0001960824214D110685268411819605A607A
:10A700000EE0A04202D90C232B6009E021686018FA
:10A71000824203D1106852684118216062605C6017
:10A72000280000F039FF70BDDC210020032370B544
:10A73000CD1C9D43083506000C2D01D20C2501E0EF
:10A74000002D01DBA94202D90C23336048E0300020
:10A7500000F021FF234B1C681A002100002913D0B0
:10A760000B685B1B0DD40B2B02D90B60CC181EE0C1
:10A770008C4202D1636813601AE04B6863600C007E
:10A7800016E00C004968E9E7174C2368002B03D159
:10A79000300000F02BF820602900300000F026F88F
:10A7A000431C18D00323C41C9C43A0420DD1256038
:10A7B000300000F0F1FE200007220B30231D9043F3
:10A7C000C31A0ED05A42E2500BE0211A300000F0BA
:10A7D0000DF8431CEBD10C233000336000F0DCFE9D
:10A7E000002070BDDC210020D8210020002370B59E
:10A7F000064C050008002360FEF722FA431C03D133
:10A800002368002B00D02B6070BDC046F4210020CF
:10A8100010B5034B0100186800F064FE10BDC0467F
:10A8200068200020002370B5064C050008001100C8
:10A83000236000F0C3FA431C03D12368002B00D02F
:10A840002B6070BDF421002007B5009313000A00AF
:10A8500001000248006800F073FE0EBD6820002071
:10A8600030B59BB00091049108496D460291059165
:10A87000012182244942E981A4006946AC8100F0AB
:10A8800075F80023009A13701BB030BDFFFFFF7FE7
:10A8900010B513000A00010002480068FFF7E0FF4E
:10A8A00010BDC04668200020F0B58E6885B0070056
:10A8B0000C00039201939E4243D890238A89DB00C7
:10A8C0001A423ED003250969236801985B1A029356
:10A8D00063695D43EB0F5D19029B6D1001331B181B
:10A8E000AB4200D91D00530510D529003800FFF7F1
:10A8F0001DFF061E14D0029A216900F0CDFDA28929
:10A90000194B134080221343A38112E02A00380020
:10A9100000F0B1FE061E0CD121693800FFF7BAFE27
:10A920000C23402201203B60A38940421343A381B2
:10A9300017E0029B2661F61826606561019EED1AFC
:10A94000A560019BB34200D21E003200039920682B
:10A9500000F0ABFD0020A3689B1BA36023689E1939
:10A96000266005B0F0BDC0467FFBFFFFF0B59FB08D
:10A97000029005938B890F0016001B0610D50B69FA
:10A98000002B0DD14021FFF7D1FE3860386100283F
:10A9900004D10C23029A01381360D8E040237B6174
:10A9A000002306AD6B6120336B761033AB76340039
:10A9B0002378002B03D1A31B049312D003E0252B93
:10A9C000F9D00134F4E7A31B320039000298FFF7F5
:10A9D0006BFF431C00D1B4E06A69049B9446634456
:10A9E0006B612378002B00D1ABE00122002352429F
:10A9F0006A6002A95432521801342B60EB60AB60DC
:10AA00001370AB65534E21780522300000F039FDFC
:10AA1000002807D00123801B83402A680134134398
:10AA20002B60EFE72B68DA0604D55322202102A819
:10AA3000121811701A0704D553222B2102A81218DC
:10AA4000117022782A2A03D0099B00200A210EE0E7
:10AA5000059A111D12680591002A01DB099204E094
:10AA60005242EA60022213432B6001340BE0227849
:10AA7000303A092A04D84B4301349B180120F6E7E9
:10AA8000002800D0099323782E2B1ED163782A2B1F
:10AA90000AD1059B02341A1D1B680592002B01DAAE
:10AAA00001235B42079310E000230A201A000134BF
:10AAB0006B6021783039092904D842430134521897
:10AAC0000123F6E7002B00D00792234E21780322C2
:10AAD000300000F0D6FC002806D04023801B8340C5
:10AAE0002A68013413432B60217806221B48661C18
:10AAF000297600F0C6FC002812D0194B002B06D195
:10AB00000722059B073393430833059314E005ABF5
:10AB100000933A00134B2900029800E000BF07E0C1
:10AB200005AB00933A000F4B2900029800F01CF887
:10AB30000390039B013304D06B69039A9B186B61EC
:10AB400035E7BB890B985B0601D5012040421FB059
:10AB5000F0BDC0461DBF010023BF010027BF01009B
:10AB600000000000A9A80100F0B58BB006920A0011
:10AB700043320793059004920A7E0C00109B6E2AC4
:10AB800000D1ABE011D8632A22D009D8002A00D125
:10AB9000B5E0582A00D0C5E045310A70814A4FE03F
:10ABA000642A1DD0692A1BD0BCE0732A00D1AAE018
:10ABB00009D86F2A29D0702A00D0B3E02022096872
:10ABC0000A43226037E0752A1FD0782A33D0A9E0E3
:10ABD0000E001A684236111D196013683370A4E024
:10ABE00021681A68080606D4490604D5111D1960A3
:10ABF0000023D55E02E0111D19601568002D3BDAB7
:10AC00002D23049A6D42137036E021681A680806F5
:10AC100006D4490604D51568111D1960ADB202E0CD
:10AC2000111D196015685F4B227E039308276F2A58
:10AC30001DD00A271BE022007821453211705A4AA4
:10AC400019680392081D226818600D68100602D466
:10AC5000500600D5ADB2D30702D520231A43226097
:10AC60001027002D03D1202322689A43226023005D
:10AC7000002243331A7002E00A274A4B03936368A9
:10AC8000A360002B09DB0422216891432160002D81
:10AC900005D1049E002B11D07BE0002D79D0049EBD
:10ACA00028003900FEF73AFE039B013E5B5C28005A
:10ACB00033703900FEF7ACFD051EF1D1082F09D124
:10ACC0002368DB0706D563682269934202DC3023E0
:10ACD000013E3370049B9B1B23612BE009681A68BB
:10ACE000080607D4490605D5111D19601368A28A04
:10ACF0001A8004E0111D1960136862691A6000234C
:10AD0000049E236116E01A68111D1960166800215F
:10AD10006268300000F0B5FB002801D0801B606045
:10AD2000636803E02600423632700123236100236A
:10AD3000049A1370079B09AA00932100069B0598AB
:10AD400000F02BFC431C02D10120404227E0236984
:10AD5000320006990598079DA847431CF4D0236844
:10AD600000259B070FD4099BE068984217DA18006A
:10AD700015E022000123193206990598079EB04775
:10AD8000431CE1D00135E368099A9B1A9D42F0DB30
:10AD9000E9E72600039B42361B7833708EE70BB041
:10ADA000F0BDC0462EBF01003FBF01005822012068
:10ADB000014B40421A607047F421002058220120C4
:10ADC000014B40421A607047F421002070477047E1
:10ADD00010B50400FDF7E0F92000FDF79BFC200012
:10ADE00010BDC369C1681A68431C114215D0DA7FCF
:10ADF000002A01D0013ADA77DB7F082B05D901223E
:10AE0000837913420ED1134305E0012B0AD88379CD
:10AE1000DB0707D50023837104E0DA7F0B2AEBD828
:10AE20000132E8E770470123807918407047704786
:10AE300010B50400FDF76EFC200010BD70B50425B0
:10AE4000837904002B420DD1FDF7E2F90820FDF7CC
:10AE50003FFC0C2106006156FDF736FFA379A66082
:10AE60002B43A371A068FDF757FF70BD10B5837920
:10AE700004001B0706D5806800F0A4F80C23E356F5
:10AE800083420CD02000FDF7C3F90C20012120568D
:10AE9000FDF73AFD0822A379A0601343A37110BD0A
:10AEA000704710B518C96210E10701D58158CB5819
:10AEB0008018984710BD704710B50400FDF72AFCB4
:10AEC000200010BD10B50400FDF724FC200010BDCB
:10AED00010B50400FDF788FA2000FDF71BFC2000E8
:10AEE00010BD10B50400FDF771FA2000FDF712FC4B
:10AEF000200010BD10B50400FDF77AFB2000FDF71F
:10AF000009FC200010BD4923C16810B599430A000F
:10AF100083685B7C5BB29A40036940685903802375
:10AF2000DB011940114300F06EFA10BD0300F0B5CB
:10AF30008208980702D1181E01D137E00132541C53
:10AF400072B6802621C93606A84217D20368002BA4
:10AF500011DA5B005B08990041180F68002F08DACE
:10AF6000A94206D231007F007F08DB191943016036
:10AF7000F1E7A34205D29B00C018E5E762B60020C6
:10AF800014E00232934203D992008218954204D809
:10AF900003685B005B08036006E080211B1B090659
:10AFA000043A0B431360046062B60430F0BD70B520
:10AFB0000D0001210400027841562800FDF77AFCBB
:10AFC000657070BD407840B2704710B500F054F81D
:10AFD00010BD70B505000C002178002904D02800B0
:10AFE0000134FFF7F2FFF7E7080070BD0EB400214F
:10AFF000F0B5A0B025AB20CB06002A0008000193D5
:10B00000FFF722FC0400772809DC2900019A02A836
:10B01000FFF73EFC02A93000FFF7DBFF0EE0013036
:10B0200000F021FA0700019A2900FFF731FC3900EE
:10B030003000FFF7CEFF380000F0FFF9200020B00D
:10B04000F0BC08BC03B0184718234A1C5A438218A6
:10B05000926810B55943002A05D14118CB68002BDE
:10B0600009D0984707E04318DB68002B03D041184C
:10B0700010311800904710BD10B50C000430FEF7D9
:10B0800037F9200010BD10B50400436842699918D3
:10B0900000F05EF8E36A002B04D1A369002B07D00F
:10B0A000984705E0A069002802D021001C3198478C
:10B0B00010BD10B5040000F053F80023A361E36253
:10B0C00010BD70B50D00040000F04AF865612069FC
:10B0D00000F03BF92918200000F03AF870BD036831
:10B0E00010B50400002B05D1C06800F02EF9012333
:10B0F0006060236010BD10B504000068002804D013
:10B10000E06800F022F96368C01A10BD10B58468C9
:10B11000FFF7F1FF201810BD10B50400C06800F063
:10B1200014F900236060A36010BD002310B5036014
:10B13000436083600400FDF797FDE0602000FFF7A7
:10B14000EBFF200010BD10B503689B68984710BD49
:10B1500010B50A000300011D006900F0BEF810BD23
:10B1600010B5011D006900F0D4F810BD10B5012024
:10B17000FFF740FA7047704710B5FFF7FCFFFFF785
:10B18000F9FFFDF777F810BD10B5002801D000F0E9
:10B1900001F8FEE700B59BB0032102A800F06DF8AE
:10B1A000022108A800F069F801210EA800F065F856
:10B1B000102114A800F061F8059B039A96201A60EC
:10B1C000099A0C9B1A600F9A129B1A60159A179B8A
:10B1D00001921A6000F0C9F8069B039A96201A6043
:10B1E000099A0B9B1A600F9A119B01921A60159A8B
:10B1F000189B1A6000F0B9F8DEE70FB4012010B513
:10B20000FFF7F8F970B50D0004001600FDF7A8FD72
:10B210006B1C07D00021200000F0B4F831002000A2
:10B2200000F0AAF870BD70B5436804000D00002A54
:10B2300001D0C26800E0026913602000012100F023
:10B24000A1F82900200000F097F870BD10B5032286
:10B25000FFF7D8FF10BD10B5FFF7D4FF10BD70B5D4
:10B260000D0004001600FDF77BFD6B1C04D03200BE
:10B2700000212000FFF7D7FF70BD10B50022FFF7B7
:10B28000EEFF10BD70B504000D0003681B68984701
:10B2900063681D6070BD036870B5DB680400984783
:10B2A00063685A682368002A02D19B68984713E0B4
:10B2B0005B681568984763682D1A5A68002D07DC8B
:10B2C000916859601B68002BEAD050689847E7E7FF
:10B2D000236810681B69984770BD70B50D0072B681
:10B2E0004B60002346680A607468002C05D0216812
:10B2F000511A02D42300A468F7E7002B05D1036894
:10B3000075601B691000984700E09D60AC6062B6F4
:10B3100070BD10B572B6426853688B420CD19B6801
:10B3200053600268002B02D1936898470BE01269C2
:10B330001868904707E01300002B04D09A689142E8
:10B34000F9D18A689A6062B610BD10B503685B686F
:10B35000984710BD70B50400FEF76EF80500FEF7C3
:10B360006BF8401BA042FAD370BDFA2310B59B00C6
:10B370005843FFF7EFFF10BD10B5007840B200F062
:10B380000EF810BD002901D0012907D10023A02209
:10B39000C356D205C133FF339B0099507047A02399
:10B3A0008000DB05C018E02310B50C24DB00C25878
:10B3B0008900A243C250C2581143C15010BD30B5DC
:10B3C000002903D001291DD1002311E001220C0026
:10B3D00013008B4005691D4203D005688B00EB18F4
:10B3E0001C6001311F29F3D10CE001331F2B09D060
:10B3F0000A009A4004691442F7D004689A00A2181F
:10B400001160F2E730BD426800691368594001409D
:10B41000594011607047704770470023CB565A1C43
:10B4200005D0834201D1486802E00C31F5E71800ED
:10B43000704710B5FFF724F910BD10B5FFF7F9FFFD
:10B4400010BD10B5041E00D101342000FFF70EF925
:10B45000002807D1FEF78EF8002801D100F00AF885
:10B460008047F2E710BD10B5FFF7EBFF10BD10B538
:10B4700000F000F810B50620FFF7CAF90120FFF729
:10B4800083FEC9B28218904204D003788B4202D066
:10B490000130F8E700207047002310B59A4203D02E
:10B4A000CC5CC4540133F9E710BD10B5884202D911
:10B4B0008B18984201D3002305E09B1A013A08D368
:10B4C000995C8154FAE7934203D0CC5CC4540133B5
:10B4D000F9E710BD03008218934202D019700133BE
:10B4E000FAE7704770B504000D001F2904D9162330
:10B4F0000360012040421EE0426C002A04D08B0011
:10B50000D2181368002B08D1200000F015F82A008B
:10B5100001002000FFF786F90DE00020012B0AD082
:10B52000591C03D117332360013004E000242800A4
:10B5300014609847200070BD10B5FFF737FC10BDB0
:10B5400030B514009BB005001A00002C04DA8B23E0
:10B550000360012040421CE0822368469B008381F7
:10B560000023009104919C4200D0631E0293059336
:10B57000012369465B42CB8128001E9BFFF7F6F949
:10B58000431C01DA8B232B60002C02D00023009A8D
:10B5900013701BB030BD70477047F7B517000193AB
:10B5A0008A680B6900900C00934200DA13002200B5
:10B5B0003B6043321278002A01D001333B6023689C
:10B5C0009B0602D53B6802333B60062523681D407D
:10B5D0001ED0230043331B785A1E934122689206E3
:10B5E0001CD53020E1184331087021005A1C453128
:10B5F0000978A2184332023311700FE022000123B0
:10B60000193201990098089EB047431C0ED00135AD
:10B61000E3683A689B1A9D42F0DBDAE72200019961
:10B6200043320098089DA847431C02D101204042A4
:10B6300020E006232068E1683A6803400025042BD7
:10B6400003D18D1AEB43DB171D40A3682269934297
:10B6500001DD9B1AED180027BD420AD0220001230C
:10B660001A3201990098089EB047431CDED001377A
:10B67000F2E70020FEBDF8B506000C001500002919
:10B6800004D11100FFF752F8040018E0002A03D19A
:10B69000FFF700F82C0012E000F013F885420ED9F5
:10B6A00029003000FFF742F8071E07D021002A00CA
:10B6B000FFF7F2FE21003000FEF7ECFF3C00200017
:10B6C000F8BD0B1F1A68101F002A04DA8918043904
:10B6D0000B68D01804387047F8B5C046F8BC08BCF1
:10B6E0009E467047F8B5C046F8BC08BC9E467047F9
:10B6F0000000000000000000E3AD0100CFAD01003C
:10B7000099810100D1AD010000000000000000009F
:10B71000CDAD0100CFAD01002FAE010031AE010073
:10B720000500000005000000030000000900000003
:10B730000D04000024BB0100000000000000000018
:10B74000E9830100D1AE010000000000000000000C
:10B75000F1850100F5AE01000000000000000000CE
:10B76000B7AE0100C5AE01000000000000000000FF
:10B77000A1AE0100B9AE0100000000000000000011
:10B78000CD830100E3AE010087B00100000000009E
:10B790000000000000000000000000006DB101008A
:10B7A000AD9301003994010017B4010019B40100F0
:10B7B00051940100A0B701001821002001000000F1
:10B7C0000070004004000000020000000070004013
:10B7D000080000000300000000700040100000009E
:10B7E0000400000000700040200000000500000080
:10B7F00000700040400000000600000000700040A3
:10B8000080000000FF000000FFFFFFFF00000000BD
:10B810000000000000000000010000000100000026
:10B820000000000001000000020000000000000015
:10B830000100000003000000000000000100000003
:10B8400004000000000000000100000005000000EE
:10B8500000000000010000000600000000000000E1
:10B8600001000000070000000000000001000000CF
:10B8700008000000000000000100000009000000B6
:10B8800000000000010000000A00000000000000AD
:10B89000010000000B00000000000000010000009B
:10B8A0000C00000000000000010000000D0000007E
:10B8B00000000000010000000E0000000000000079
:10B8C000010000000F000000000000000100000067
:10B8D0001000000000000000010000001100000046
:10B8E0000000000001000000120000000000000045
:10B8F0000100000013000000000000000100000033
:10B90000140000000000000001000000150000000D
:10B910000000000001000000160000000000000010
:10B9200001000000170000000000000001000000FE
:10B9300018000000000000000100000019000000D5
:10B9400000000000010000001C00000000000000DA
:10B95000010000001D0000000000000001000000C8
:10B960001E0000000000000001000000FF000000B9
:10B97000FFFFFFFF00000000B004000000F0040023
:10B980006009000000D00900C012000000B01300E0
:10B9900080250000005027004038000000003B00D8
:10B9A000004B000000A04E008070000000F0750009
:10B9B000127A0000000080000096000000509D00F8
:10B9C00000E1000000F0EB00002C010000903A01C3
:10B9D00000C2010000E0D7010084030000B0AF0303
:10B9E00090D00300000000040008070000705F070B
:10B9F00000100E00A4DFBE0E40420F000000001039
:10BA0000F29C0100169C0100D49C0100AC9C01003A
:10BA1000D49C0100A09C0100D49C0100AC9C0100BE
:10BA2000169C0100169C0100A09C0100AC9C01002A
:10BA3000589D0100589D0100589D0100DA9C0100AD
:10BA4000169C0100169C0100C09C0100AA9C0100EC
:10BA5000C09C0100A09C0100C09C0100AA9C0100A8
:10BA6000169C0100169C0100A09C0100AA9C0100EC
:10BA7000589D0100589D0100589D0100649D0100E2
:10BA800050A00100AE9F0100AE9F0100AC9F0100DD
:10BA900042A0010042A0010038A00100AC9F0100BB
:10BAA00042A0010038A0010042A00100AC9F0100AB
:10BAB00048A0010048A0010048A00100D2A0010058
:10BAC0000000000000000000000000000000000076
:10BAD0000000000000000000000000000000000066
:10BAE0000000000000000000000000000000000056
:10BAF0000000000000000000000000000000000046
:10BB00000000000000000000000000000000000035
:10BB10000000000000000000000000000000000025
:10BB200008200020000004020204020000020404B5
:10BB300004000202000404030100000103030300E7
:10BB400001010203030402010103010403010003D4
:10BB500000000401010200000302766563746F7245
:10BB60003A3A5F4D5F656D706C6163655F626163FA
:10BB70006B5F61757800723A2025750A0D00707749
:10BB80006D20636C6F636B2066713A202569206DB0
:10BB9000687A0A0D007374617274207265636F7243
:10BBA00064696E670A0D00616C7265616479207367
:10BBB000746172746564207265636F7264696E6724
:10BBC0000A0D0073746F70207265636F7264696E22
:10BBD000670A0D006E6F74207265636F7264696E20
:10BBE000672C2074686F756768206E6F7468696E63
:10BBF0006720746F2073746F700A0D007374617224
:10BC00007420706C6179696E670A0D00616C7265F1
:10BC1000616479207374617274656420706C6179F9
:10BC2000696E670A0D0073746F7020706C617969BA
:10BC30006E670A0D006E6F7420706C6179696E67B3
:10BC40002C2074686F756768206E6F7468696E6702
:10BC500020746F2073746F700A0D00703A20257580
:10BC60000A0D0000000402020402000002040404A1
:10BC700000020200040403010000010303030001A9
:10BC80000102030304020101030104030100030094
:10BC90000004010102000003021B1B000E11000042
:10BCA00000000008080800080A4A4000000A5FEA8D
:10BCB0005FEA0ED92ED36E19324489330C924C921E
:10BCC0004D080800000004880808040804848488DB
:10BCD000000A448A4000048EC480000000048800EA
:10BCE000000EC000000000080001224488100C92E1
:10BCF00052524C048C84848E1C824C901E1EC24472
:10BD0000924C06CA525FE21FF01EC13E02448ED121
:10BD10002E1FE24488100ED12ED12E0ED12EC488B3
:10BD2000000800080000048004880244880482009F
:10BD30000EC00EC008048244880ED126C0040ED165
:10BD400035B36C0C925ED2521C925C925C0ED01099
:10BD5000100E1C9252525C1ED01C901E1ED01C90C5
:10BD6000100ED013712E12525ED2521C8808081C7D
:10BD70001FE242524C1254981492101010101E11CF
:10BD80003B75B131113935B3710C9252524C1C9242
:10BD90005C90100C92524C861C925C92510ED00C0E
:10BDA000825C1FE4848484125252524C1131312A35
:10BDB00044113135BB7112524C9252112A44848481
:10BDC0001EC488101E0EC808080E10080482410EFA
:10BDD000C242424E048A400000000000001F0804D6
:10BDE000800000000ED2524F10101C925C000ED04A
:10BDF000100E02424ED24E0C925C900E06C81C8869
:10BE0000080ED24EC24C10101C92520800080808AE
:10BE1000024002424C1014981492080808080600C8
:10BE20001B75B131001C925252000C92524C001CF6
:10BE3000925C90000ED24EC2000ED010100006C8C8
:10BE4000049808080EC807001252524F0011312AF8
:10BE50004400113135BB00124C8C9200112A4498D9
:10BE6000001EC4881E06C48C8486080808080818AA
:10BE7000080C881800000C836050776D4F75742093
:10BE800070696E206D617070696E67206661696CA3
:10BE900065642E20416C6C20617661696C61626C16
:10BEA000652050574D206368616E6E656C7320612C
:10BEB000726520696E207573652E00636F756C6402
:10BEC000206E6F742070696E6F75740070696E6D8E
:10BED0006170206D69732D6D617463680070696EA7
:10BEE0006D6170206E6F7420666F756E6420666F72
:10BEF00072207065726970686572616C0070696E3D
:10BF00006D6170206E6F7420666F756E6420666F51
:10BF1000722066756E6374696F6E004300232D3066
:10BF20002B2000686C4C0065666745464700303141
:10BF30003233343536373839414243444546003090
:10BF400031323334353637383961626364656600BF
:04BF500000000000ED
:08BF5400CCC1FF7F01000000D9
:10BF5C009EBC0100F821002000000000C0BA0100C6
:10BF6C00E0BA010000BB010000000000000000006E
:10BF7C0000000000000000001BBF010000000000DA
:10BF8C0000000000000000000000000000000000A5
:10BF9C000000000000000000000000000000000095
:10BFAC000000000000000000000000000000000085
:10BFBC000000000000000000082000208813010091
:10BFCC000100010004000000E9800100958B0100D4
:10BFDC008195010045960100C99601004D9701001D
:04BFEC00C18001000F
:0400000310008C81DC
:00000001FF
