:020000021000EC
:1080000000400020158B0100518B0100538B0100B3
:108010000000000000000000000000000000000060
:10802000000000000000000000000000558B01006F
:108030000000000000000000578B0100598B010078
:108040005B8B01005B8B01002D9001005B8B0100BD
:108050005B8B0100000000005B8B01005B8B01006B
:108060005B8B0100C9900100918C01005B8B0100CA
:108070005B8B01005B8B01005B8B01005B8B010064
:108080005B8B01005B8B01005B8B01005B8B010054
:108090005B8B01005B8B01005B8B01005B8B010044
:1080A0005B8B01005B8B0100000000000000000002
:1080B00000000000000000000000000000000000C0
:1080C00010B5064C2378002B07D1054B002B02D0AE
:1080D000044800E000BF0123237010BDA020002051
:1080E00000000000F4B10100084B10B5002B03D0D4
:1080F0000749084800E000BF07480368002B00D18B
:1081000010BD064B002BFBD09847F9E7000000009C
:10811000A4200020F4B10100942000200000000001
:10812000164B002B00D1144B9D46402292029A1A06
:10813000924600218B460F461348144A121A02F049
:10814000C9FC0F4B002B00D098470E4B002B00D0E2
:1081500098470020002104000D000D48002802D09F
:108160000C4800E000BF02F081F82000290002F076
:1081700035FB02F065F8C046000008000040002012
:10818000000000000000000098200020E8210020EE
:10819000000000000000000010B50400034B08338D
:1081A000036000F0EBFA200010BDC0465CAB01009C
:1081B000F7B5070000250E0001930E4B0837083372
:1081C0000400858085710360290000923800182220
:1081D00002F080FC31003800019A02F06EFB6B4621
:1081E0001B88E671A380631CDD77200000F0A8FAED
:1081F0002000FEBD5CAB0100002310B5034C837171
:10820000046081800273836010BDC0467CAB0100B6
:1082100010B5837904005B0707D5A02300210B4A22
:10822000DB00D150806800F0E7F9A3791B0709D57E
:10823000A06802F057FA0C23E356834202D1A068EB
:1082400000F028FB0023A360A37110BD0070004064
:1082500070B50D00040002F07DF9280001F094FFD4
:10826000034901F0C3FA011CA06800F031FB70BDA6
:1082700000007F4330B5BFB000230122112105A8C3
:10828000FFF796FF002302221A210EA8FFF790FFA6
:108290002549684600F02AF917A800F0AFF86846AB
:1082A00000F072F905A8F12402F031F96C443CADFC
:1082B000002812D02378002B05D017A802F08CF9E3
:1082C000684600F061F92B78002BEBD117A800F07D
:1082D000C5F8684600F042F9E4E70EA802F017F985
:1082E0002B78002811D0002B05D017A802F068F9D0
:1082F000684600F049F92378002BD3D117A800F085
:10830000C9F8684602F08FF9CCE7002B05D017A812
:1083100002F056F9684600F037F92378002BC1D0F7
:1083200017A802F059F9BAE78CAB0100F8B50400C0
:10833000043002F0F7F8A36AE26A0600934206D01E
:10834000002B00D01870A36A0133A3622FE0626A89
:108350009B1A5A1C02D1164802F09DFB0125002BE6
:1083600007D05D00AB4202D82F1E06D001E00125E8
:108370006D42280000F01EF90700A36A626A9B1A8A
:10838000FB18002B00D01E70616AA36A5E1A03D02E
:108390003200380002F089FB606A0136BE190028FD
:1083A00001D000F029F97D196762A662E562F8BD87
:1083B0001EAF010010B50400044B036002F0ABF9DE
:1083C000200000F07BFB200010BDC046CCAB0100BC
:1083D00010B50400084B083303606030FFF7EAFF74
:1083E00020003030FFF7E6FF606A002801D000F07F
:1083F00003F9200010BDC046A4AB010070B5040015
:10840000144B0322083308C00721FFF7F5FE2000B4
:108410000222082114300025FFF7EEFE20006562DD
:10842000A562E562303000F033FB20000A4EA564FF
:108430002663E565603000F02BFB23001F228C33A0
:108440002666A5671D60DD6004331D715D71200027
:108450001A6070BDA4AB0100CCAB010010B50400E4
:1084600094342378002B0FD1426A8262020090324A
:1084700011680365054A064B8064C365C2643030E9
:1084800002F051F90123237010BDC0462D83010075
:1084900089A5010010B5040095342378002B13D171
:1084A0000200416A98321160083A1168074A8067F1
:1084B000C267021DD3670300054A8C331A6060301F
:1084C00002F031F90123237010BDC046F1A501006F
:1084D00089A5010010B50400034B08330360406810
:1084E00000F08AF8200010BDB4AB01001A4B70B543
:1084F00008330360002304008160C360036101202E
:108500008D68AB4206DA02009A4026690133324395
:108510002261F6E7C86800230121834206DA0A00D7
:108520009A40E56801332A43E260F6E7142000F040
:1085300041F81122A368E1689A561B7C91400A0019
:1085400021695BB2994005000A430123002100F034
:1085500069FB6560200070BDB4AB0100C3680949C8
:1085600010B519400A0083685B7C5BB29A400369CE
:10857000406859038023DB011940114302F075FA6A
:1085800010BDC04604FEFFFFC368094910B519407D
:108590000A0083685B7C5BB29A40036940685903B8
:1085A000E0231B021940114302F05FFA10BDC046E0
:1085B00007FEFFFF70B5050000240D4B1B789C42A1
:1085C00009DA0C49E300C918280002F03FF8002836
:1085D0000AD10134F1E7280001F06EFE041E04D137
:1085E000142000F095F900E00400200070BDC046A2
:1085F000DE210020BC20002070B5002818D00D4BD3
:108600000D491C780023A34210DADA005558A8421D
:108610000AD98A185268904206D280230438026828
:108620001B061343036003E00133ECE701F04EFE49
:1086300070BDC046DE210020BC20002070B5051EA4
:1086400015DD0C4B0C4E1A681C00002A02D0306855
:1086500002F061F8FA21256000243068074B890098
:108660008361C462694302F05EF8200000E00448C0
:1086700070BDC046FC200020CC2000201D870100DA
:1086800017FCFFFFF8B5114F06003D68002D0AD119
:108690003020FFF78FFF040000F0FAF90C4BA561C2
:1086A0002360E5623C600B4D2B68002B09D1102044
:1086B000FFF780FF040002F06AF820002C6002F04F
:1086C00040F83000FFF7BAFFF8BDC046CC200020CC
:1086D000CCAB0100F820002070B50D4C2368002BB6
:1086E00003D00C4B1B68002B02D10620FFF7CAFFFA
:1086F000206802F03DF802000749C3170D684E6874
:108700005219734120680A604B6002F037F870BD5F
:10871000F8200020CC2000209820002010B5FFF782
:10872000DBFF0024054BE058002802D003681B68DB
:1087300098470434282CF5D110BDC046D020002025
:108740000B4B10B51B680400002B03D0094B1B68B2
:10875000002B02D10620FFF795FF0023064A99005F
:108760008858002801D00133F9E78C5010BDC0466D
:10877000F8200020CC200020D0200020002310B5BD
:10878000044A99008C58844201D00133F9E7002053
:10879000885010BDD020002030B50500A024012352
:1087A000C135FF35E405AD002B511D0083408D40E0
:1087B0000A49000265506350094B92001843094B67
:1087C000D118A223DB00C850C046C046C046064BA5
:1087D0000021D218A823DB00D15030BD0C050000C9
:1087E000030003000060004000A00040F7B5274EE2
:1087F0000191356807002649002D08D07368002BC9
:1088000004D0B3680225002B0FD100E00125082019
:108810000D70FFF7CFFE3900040000F097FB6B46A8
:108820001B79AD00A37074512EE00B78581C9C4648
:10883000022800DD002003009C00634514D00125C0
:10884000124A105982782A4009D00B706B461B7966
:108850003900837001F03BFF0C4B1C5914E0581C8D
:1088600013000228E8DCE6E7012330598278134040
:108870001C1E09D06B461B793900837001F027FF5D
:10888000034B1B789B00F4582000FEBD0021002004
:108890007420002070B5002403780B4A4533FF3361
:1088A0009B009C50050000F019FB0123AB70074EA4
:1088B000A3599D4204D12800FFF79EFE0023A35137
:1088C00004340C2CF3D170BD006000400021002066
:1088D00070B50D1C06000021281C00F047FF041E87
:1088E00006D13000291C00F091FA7560200000E0EC
:1088F000004870BD17FCFFFFBFF34F8F024A034BC8
:10890000DA60BFF34F8FFEE70400FA0500ED00E0E8
:10891000F0B595B01822002106000EA802F0DAF892
:1089200013210EA801F0C4FF03210EA802F056F88F
:1089300001224A4B00921B68002B01D0DBB200934E
:108940000123474A002109A800F06CF9454B9E42DB
:1089500000D9002672B6444B1022002105A81D68DC
:1089600002F0B8F8414B642130000593052400F073
:10897000FFFD60435030281806900A21300000F0B7
:10898000F7FD0A2100F0DAFE6143503169180791C2
:1089900030000A2100F0D2FE4C43210050316C1807
:1089A000802608940024B601009B002B3CD004AD27
:1089B0000027032C02D180260024B6016B682C4AC4
:1089C000029363000133D318002201921021581E34
:1089D00000780141039119788C4660460299095C40
:1089E0000398014204D00120904001990143019174
:1089F00001320633092AE9D1019B2A68D9431D4B6C
:108A000009011940029B934203D1312F01DC00215F
:108A100000E0314309A802F028F8FA23139A0F99CD
:108A2000DB001068014201D1FFF766FF013B002B1C
:108A3000F7D1FA23013401377600E4B25B009F429C
:108A4000B7D1043508ABAB42B2D1044B1B68002B45
:108A5000AAD0009B013BDBB20093A5E70C210020CC
:108A6000F0FF0000E70300000020002070AF0100CD
:108A70003AAF0100F01F0000034A044B12681A606D
:108A80007E225A607047C04600200020102100203E
:108A9000084B10B508330360002343608360C36054
:108AA000040000F02BF80449206101F01DFF2000B4
:108AB00010BDC046D8AB0100ABA7010010B5040043
:108AC000034B0833036001F07DFE200010BDC0465B
:108AD000D8AB0100074A13681818EFF308818842E1
:108AE00005D30C220120044B40421A6001E01060C3
:108AF0001800704704200020E4210020004870473F
:108B000000AC010010B5024801F0F7FE10BDC046F0
:108B100000AC01000848026803210A4302600749CB
:108B2000074A084B9B1A03DD043BC858D050FBDCB6
:108B300005488047054800472405004000B2010071
:108B400000200020942000203192010021810100AA
:108B5000FEE7FEE7FEE7FEE7FEE7FEE770B50E0084
:108B60000F4C05002100300000F052FB210028606E
:108B70000023CB565A1C05D09E4201D18B6802E0DF
:108B80000C31F5E70023A0210120064AC9002B7112
:108B9000505068211B020B430349535070BDC0461F
:108BA00008AC010000700040040500000E4B0F4AA5
:108BB00010B5995800219950995899509C580C49D2
:108BC0002140995001799C580902214399508020F5
:108BD0000122C0001A6019581142FCD1A123024A97
:108BE000DB00D058C0B210BD00700040040500008A
:108BF000FF00FFFF01704B1C0AD001238B40436034
:108C0000044BC360044B0361044B4361044B83601A
:108C10007047C046080500500C0500501005005074
:108C2000140500500261064A10B54260054A0173FE
:108C30008260054A1900026001F0F3FE10BDC046D3
:108C400004050050100500500007005003780D4A3D
:108C50009B009B18A22210B58024D2009858640370
:108C600020439850002902D09958074806E09858A8
:108C7000064901408020995099584002014399507B
:108C800010BDC0460060004003000300FFFFFCFF72
:108C90000021114A114B1165114A1188114A99504E
:108CA000114A1178002904D010490888A821C90068
:108CB00058505178002903D00C4948880C49585025
:108CC0009278002A04D0094A9188A922D2009950AA
:108CD00001221A607047C046FCA0004000A000407E
:108CE0006C2000204C050000DF2100206E200020B9
:108CF000440500000022154B10B55A6090420ED179
:108D00000121134A98509950124A05319850043263
:108D1000985008329950104A1188104A9950104AB8
:108D2000410051308A5AFF3080001A50C2200D494C
:108D300080000C580C4A22408024E40322430A504D
:108D40008022D2000A6001221A6010BD00A00040FB
:108D5000FC0F0000040500006C2000204C05000002
:108D60006E20002000E100E0FFFF00FF012330B58E
:108D70001D000200A0248540C132FF32E4059200AC
:108D800013510A4A8900A550094A0A4C8918A2229F
:108D9000D2008C50C046C046C0460B60064B000255
:108DA00018438850C046C046C04630BD0C05000080
:108DB00000600040031F02000300030010B5002AFA
:108DC00002D0FFF743FF17E003780C4A9B009B1883
:108DD000A222D2009C580A4820409850002902D074
:108DE0009958084806E09858074901408020995052
:108DF000995880020143995010BDC0460060004060
:108E0000FFFFEFFF03000300FFFFFCFFF7B50022A9
:108E10002C4B2D4C1A6501230E1C070063600021AA
:108E2000301C00F0A3FC0194002809D1FE21301C65
:108E3000890500F0AFFC002803D0FE26B60500E04F
:108E400000263D78214B6D00EB5A0093204B1C8887
:108E5000200001F051F9311C00F092FE00F0AEFC50
:108E60001C4B1A4A81B2E952A952002903D10122AE
:108E7000EA520A0013E08C4206D1013C002138007E
:108E8000EC52FFF7E3FE0DE0009B002B01D0A34264
:108E900008D1009B01211A1B54426241D2B2380012
:108EA000FFF78CFF8022C123019912039B00CA5057
:108EB0000199094A053BFF3BCA500123019A1360FF
:108EC000F7BDC046FCA0004000A00040D821002013
:108ED0006C2000206E20002008080000002110B542
:108EE0000378034AD1540021FFF790FF10BDC0461C
:108EF000DF21002003230020CA1713400E4A59180F
:108F0000106501220D4B0E485A6089100D4A8142AE
:108F100002D90121494202E0042900D8052111802B
:108F20008021C1220903920099500749053AFF3A6E
:108F3000995001221A607047FCA0004000A0004038
:108F4000FFFF00006C20002008080000F8B50E00AC
:108F500005002D49300000F05BF92C4BC4B2C0B2C3
:108F6000195C012200290FD05978002902D15A70CA
:108F700014000AE09978002902D19A70022404E0D2
:108F8000234801F06CFC00E01A5430006E702100A0
:108F90002C70FFF7EBFE1F4B6200D2B21E48A100FF
:108FA000C918D3001B181D481B4E19501C48571CCC
:108FB00019501C48A1000918A220C0001950A32173
:108FC0001948C9005850A020C00033589C460123BE
:108FD0001900B9400F00190091400A0061463A4358
:108FE0000A433250002C02D18022D2059367200020
:108FF000FFF780FE28001821FFF77CFF28000021E2
:10900000FFF704FFF8BDC0465CAC0100DF21002083
:1090100050B101000060004000F001401405000064
:109020001C05000040A100404CA10040C1230E4A95
:109030009B00D15810B5090603D50C49096A0029CF
:1090400008D1D3585B070DD5084B0021DB68002BF6
:1090500001D107E00121064B1868002802D0054B1A
:109060001B68984710BDC04600200040FC2000400F
:10907000202100202421002001230E4A10B59364F2
:1090800080230D499B00CB670C491400086D0C4AE6
:10909000002804D0002008651168013111600949D9
:1090A0000B60A923DB001068E358010C9BB200049D
:1090B000184310BD0090004004E100E0FC90004027
:1090C0002C21002000E100E0F8B50F4C636C002B70
:1090D0000FD000270D4E67643378BB4209D00C4B8C
:1090E0001D68FFF7C9FF2D1ABD4202DC3770FFF77C
:1090F00009FD236D002B06D0064A13680133136067
:109100000022014B1A65F8BDFC900040E3210020CD
:10911000282100202C2100201B4970B50C78002C40
:1091200030D10120194B1A4A586054608024E4055C
:10913000206050680028FCD0002201240425154836
:109140001A500C30DC601D5008381A501248C225E5
:109150001A50C122802092000003985080204002C3
:1091600098500E48AD0046590D4A3240C02636028E
:10917000324342518022893D9200FF3D42510260BC
:109180001C600C7070BDC046E221002000900040C1
:10919000FC000040040500004C05000000E100E078
:1091A000FF00FFFF044B10B51B78002B01D1FFF728
:1091B000B3FFFFF761FF10BDE2210020104B70B537
:1091C0001B780400002B01D1FFF7A6FF0D4D0E4EBA
:1091D0002B78002B02D033689C4210D0FFF74CFF55
:1091E000201A0A2803DCFFF747FF0A300400012396
:1091F0002B70A823054A3460DB00A4B2D45070BDA4
:10920000E2210020E32100202821002000900040DE
:1092100010B50400431C07D001F031FC0400431CCE
:1092200002D1024801F01BFB200010BDB4B10100C7
:10923000234A10B513781100012B19D1214B1B685B
:109240001B0715D1204BE0241A68F02310001840AA
:1092500022420BD11D4A12681A4209D11C4A1D4BE9
:109260001A6080221C4B12021A6001E03028F1D0F3
:109270000B68DBB2012B0DD1124A1268120709D11B
:10928000F021114A12680A40402A03D10F4A12689D
:109290000A420DD08022A3230021D205DB00D15049
:1092A0000E4B9960013191609A68002AFCD005E06C
:1092B000C1228021D200C9058B50EBE710BDC0460A
:1092C000E00F00F0E40F00F0E80F00F0EC0F00F00A
:1092D000DFFF07C004050040186C0040FC000040A0
:1092E0000123244A1168194200D11360224A1168EF
:1092F000194201D1012313600123204A1168194248
:1093000000D113601E4A1168194201D10123136074
:1093100001231C4A1168194200D113601A4A1168CE
:10932000194201D1012313600123184A116819421F
:1093300000D11360164A1168194201D1012313604C
:109340000123144A1168194200D11360124A1168AE
:10935000194201D1012313600123104A11681942F7
:1093600000D113600E4A1168194201D10123136024
:109370007047C0465C210020582100205421002065
:10938000502100204C2100204821002044210020B1
:10939000402100203C2100203821002034210020E1
:1093A000302100200123184A1168194200D11360AE
:1093B000164A1168194201D1012313600123144A8E
:1093C0001168194200D11360124A1168194201D183
:1093D000012313600123104A1168194200D1136060
:1093E0000E4A1168194201D10123136001230C4A6E
:1093F0001168194200D113600A4A1168194201D15B
:10940000012313607047C0467C2100207821002092
:1094100074210020702100206C2100206821002090
:1094200064210020602100200123184A116819429C
:1094300000D11360164A1168194201D1012313604B
:109440000123144A1168194200D11360124A1168AD
:10945000194201D1012313600123104A11681942F6
:1094600000D113600E4A1168194201D10123136023
:1094700001230C4A1168194200D113600A4A11688D
:10948000194201D1012313607047C0469C2100207E
:109490009821002094210020902100208C21002080
:1094A0008821002084210020802100200123244ADB
:1094B0001168194200D11360224A1168194201D182
:1094C000012313600123204A1168194200D113605F
:1094D0001E4A1168194201D10123136001231C4A5D
:1094E0001168194200D113601A4A1168194201D15A
:1094F000012313600123184A1168194200D1136037
:10950000164A1168194201D1012313600123144A3C
:109510001168194200D11360124A1168194201D131
:10952000012313600123104A1168194200D113600E
:109530000E4A1168194201D1012313607047C046D9
:10954000CC210020C8210020C4210020C0210020FF
:10955000BC210020B8210020B4210020B02100202F
:10956000AC210020A8210020A4210020A02100205F
:1095700003460B437FD4002243088B4274D3030974
:109580008B425FD3030A8B4244D3030B8B4228D315
:10959000030C8B420DD3FF22090212BA030C8B423B
:1095A00002D31212090265D0030B8B4219D300E0DB
:1095B000090AC30B8B4201D3CB03C01A5241830B60
:1095C0008B4201D38B03C01A5241430B8B4201D310
:1095D0004B03C01A5241030B8B4201D30B03C01A39
:1095E0005241C30A8B4201D3CB02C01A5241830AB3
:1095F0008B4201D38B02C01A5241430A8B4201D3E2
:109600004B02C01A5241030A8B4201D30B02C01A0B
:109610005241CDD2C3098B4201D3CB01C01A524172
:1096200083098B4201D38B01C01A524143098B42FB
:1096300001D34B01C01A524103098B4201D30B01E4
:10964000C01A5241C3088B4201D3CB00C01A524109
:1096500083088B4201D38B00C01A524143088B42CE
:1096600001D34B00C01A5241411A00D20146524167
:10967000104670475DE0CA0F00D04942031000D386
:109680004042534000229C4603098B422DD3030ADB
:109690008B4212D3FC22890112BA030A8B420CD3EB
:1096A000890192118B4208D3890192118B4204D314
:1096B00089013AD0921100E08909C3098B4201D394
:1096C000CB01C01A524183098B4201D38B01C01ACE
:1096D000524143098B4201D34B01C01A5241030945
:1096E0008B4201D30B01C01A5241C3088B4201D3F4
:1096F000CB00C01A524183088B4201D38B00C01AA1
:109700005241D9D243088B4201D34B00C01A524177
:10971000411A00D20146634652415B10104601D304
:109720004042002B00D54942704763465B1000D38E
:10973000404201B5002000F005F802BD0029F8D034
:1097400016E770477047C0468446081C6146FFE72D
:109750001FB500F0D1F9002801D40021C8421FBD77
:1097600010B500F05DF94042013010BD10B500F0B9
:10977000C3F9002801DB002010BD012010BDC04648
:1097800010B500F0B9F9002801DD002010BD01205E
:1097900010BDC04610B500F06BF9002801DC0020B8
:1097A00010BD012010BDC04610B500F061F90028C1
:1097B00001DA002010BD012010BDC0469E2110B569
:1097C000C905041CFFF7F0FF002803D1201C00F09E
:1097D00071FC10BD9E21201CC90500F0E5FA00F0C7
:1097E00069FC80231B069C466044F2E7F0B55646B0
:1097F00044465F464D46F0B444024600C70F83B06E
:109800008846650A360EBA463DD0FF2E22D0002388
:10981000EC00802599469B46ED0425437F3E434658
:109820005C025800DB0F640A000E984636D0FF2811
:1098300030D080230021E400DB041C437F38301A41
:109840000190484642460843724E800030587A40A4
:1098500013008746002D44D108239946063B9B46BA
:10986000DDE70122FF2000241A406402C305640AD8
:10987000D2071C431443200003B03CBC90469946D9
:10988000A246AB46F0BD002D20D104239946033BF0
:109890009B46C4E7002C17D1022102E0002C0AD11C
:1098A0000121321A01924A4643460A435A4892001D
:1098B00082587B409746200000F0A4FC431F76307E
:1098C0009C4040420021BAE70321B8E7280000F09D
:1098D00099FC431F9D4000237630464299469B46A3
:1098E0009DE70C239946093B9B4698E7802400227C
:1098F000E403FF20B9E70024C2468B465A4653468C
:10990000022AAED0032A7DD0012A31D101220020C3
:109910001A400024A9E70122101A1B2856DD1A401C
:1099200000200024A1E78023DB031D424BD18023CC
:10993000DB032B435C02640A3A00FF2095E76D01CC
:109940006001854230D2019A0024013A01921B2223
:109950000127290064006D00002901DBA84201D81D
:109960002D1A3C43013A002AF3D16A1E95412C433B
:1099700001987F300028CEDD620704D00F222240FC
:10998000042A00D00434220103D5244A019814404B
:109990008030FE2800DD64E70122A401640AC0B221
:1099A0001A4062E72C00A9E72D1A1A220124CFE7FA
:1099B0006B02BCD500248023DB031C436402640AD1
:1099C0004246FF2051E71C42B3D1F4E72100202298
:1099D000C140101A8440621E94410C43620704D0B7
:1099E0000F222240042A00D00434620104D501224F
:1099F00001201A40002438E70122A401640A1A4019
:109A0000002032E78023DB031C436402640A5246D1
:109A1000FF202AE7C4AD010004AE0100FFFFFFF7FD
:109A2000430270B542004C005D0AC30F4802120E9B
:109A3000460A240EC90FFF2A0FD0FF2C11D0012097
:109A4000A24200D070BDB542FCD18B420DD0002A9D
:109A5000F8D12800431E9841F4E70120002DF1D1F0
:109A6000EBE70120002EEDD1E9E70020EAE7C04650
:109A70004302F0B542005D0AC30F4802440A4800A1
:109A8000120E000EC90FFF2A1FD0FF2822D0002A75
:109A900009D16E426E4100280FD1002C0DD100205B
:109AA000002D09D005E0002801D1002C01D08B4207
:109AB00013D0584201231843F0BD002EF7D048427E
:109AC0004141012049420843F6E7002DDDD0022044
:109AD0004042F1E7002CDAD0F9E78242E9DC04DB0E
:109AE000A542E6D80020A542E6D2584243410120D3
:109AF0005B421843E0E7C0464302F0B542004C0029
:109B00005E0AC30F4802120E450A240EC90FFF2A2F
:109B100017D0FF2C19D0002A0BD170427041002CB5
:109B200017D0002807D0484241410120494208434C
:109B3000F0BD002C13D08B4214D05842012318439F
:109B4000F6E70220002EF3D1E3E70220002DEFD14B
:109B5000E1E7002DE5D10020002EE9D0EDE7002D52
:109B6000E9D1EAE7A242E8DC04DBAE42E5D8002016
:109B7000AE42DDD25842434101205B421843D7E751
:109B8000F0B557464E4645464300E0B44602884687
:109B9000760A1F0EC40F002F47D0FF2F25D00023B9
:109BA00080259A469946F600ED042E437F3F4346B2
:109BB00042465D02D20F5B006D0A1B0E904640D0FC
:109BC000FF2B39D080220020ED00D20415437F3BCB
:109BD000FB1842465746591C62408C4607430F2FDC
:109BE0005CD86F49BF00C9598F46002E45D1082364
:109BF0009A46063B9946DAE7424602282DD00328CA
:109C000000D1C3E0012800D0A2E0002500260240D8
:109C1000D4B27602ED05760A2E43E40726433000DF
:109C20001CBC90469946A246F0BD002E1AD10423D2
:109C30009A46033B9946BAE72A00511E8A41901C76
:109C4000C6E70120002DC3D0280000F0DBFA431F37
:109C500076309D4043420020BAE70124FF2514409E
:109C60000026D6E7300000F0CDFA431F9E400023C7
:109C7000763047429A46994699E70C239A46093B23
:109C8000994694E780260024F603FF25C1E73500B6
:109C90004846B2E7350022004846AEE72904090CE1
:109CA0000800370C3604360C2C0C7943704367439C
:109CB0007443060C64183619B14203D98021490255
:109CC000884647440004000C310409188D01681EC1
:109CD0008541890E2943350CED19AD010D4329014C
:109CE00004D5012369081D4063460D4319007F31E7
:109CF000002925DD680704D00F202840042800D063
:109D00000435280103D5274980330D401900FE2969
:109D1000A3DC0124AD016E0A1440CDB279E78020A6
:109D2000C003064207D0054205D128434602760A01
:109D30004446FF256DE706437602760AFF2568E76D
:109D40000124611A1B2905DD14400025002660E767
:109D50006346CBE72E002023CE40591A8D406B1E60
:109D60009D412E43730704D00F233340042B00D0B2
:109D70000436730104D5012401251440002648E768
:109D80000124B601760A1440002542E7802601240A
:109D9000F6032E437602760A1440FF2539E7C046C3
:109DA00044AE0100FFFFFFF7F8B54A024E00430240
:109DB0004400240EC50F9B09360EC90F9209FF2ED1
:109DC00000D183E001204140A01BA9425CD00028C3
:109DD00000DC95E0002E1CD1002A00D081E05A075B
:109DE00004D00F221A40042A00D004335A013BD574
:109DF0000134FF2C00D191E001209B015B0AE4B209
:109E000005405B02E4055B0AED0723432B43180082
:109E1000F8BDFF2CE3D08021C9040A431B2800DDD4
:109E200090E016002021C640081A8240511E8A4147
:109E300032439B1A5A0115D59B019E09300000F050
:109E4000E1F90538864084426CDC041B3300202095
:109E50000134E340041BA640721E964100243343A4
:109E6000BDE70D005A07BCD1DF0801231D40FF2CC0
:109E700033D1002F00D190E08022D20313003B4366
:109E80005B025B0AFF24BCE700284FDD002E2ED0CA
:109E9000FF2CA4D08025ED042A431B2800DD97E089
:109EA00016002025C640281A8240501E82413243A7
:109EB0009B185A01D5D50134FF2C6DD001227B4867
:109EC0001A405B08034013430D0088E7002A00D0C6
:109ED0007AE777E7031EC5D100257B025B0AE4B26F
:109EE0008FE701380028A4D0FF2C97D177E7002A0C
:109EF00000D174E701380028DAD0FF2CCDD16EE70D
:109F0000002821D1601CC0B2012858DD80279E1A8C
:109F1000FF0437402FD0D61A0D008FE701231D40D4
:109F200000236EE7624B241A334058E7002851D1D2
:109F3000601CC6B2012E33DDFF282DD09B185B08B4
:109F400004004CE7012274E7002C1AD0FF2E1FD02A
:109F50008024E404404223431B2800DD96E01D00DA
:109F60002024C540201A8340581E83412B43D31A16
:109F700034000D005EE7002E00D05FE700250024CE
:109F8000ABE7002B44D0C0430028F0D0FF2EE3D134
:109F90001300FF240D0022E70D00FF24002330E70B
:109FA000002C5DD1002B7DD0002A00D117E79B1833
:109FB0005A0100D456E73E4A040013400FE7002C34
:109FC0001ED1002B2FD1002A65D013000D0006E70B
:109FD00001226DE7002C1FD1002B59D0C04300286F
:109FE0000BD0FF2E4FD01B285EDC1D002024C54067
:109FF000201A8340581E83412B439B18340058E796
:10A00000002B1CD1002A49D013000D00FF24E6E6E6
:10A01000130034000D00E2E6FF2E34D08024E40467
:10A0200040422343DFE7002A00D1D8E68027981A70
:10A03000FF04074000D14DE7D31A0D00CFE6FF24FF
:10A04000002A00D1CBE68020DB08C003034204D005
:10A05000D208024201D113000D00DB00FF24BEE64E
:10A06000002B10D0FF24002A00D1B8E68020DB08A6
:10A07000C003034203D0D208024200D11300DB0028
:10A080000D00FF24ABE61300FF24A8E601236EE7D2
:10A0900013003400A3E6002700251EE780270025D3
:10A0A000FF03E9E613009AE60123A6E7FFFFFF7D21
:10A0B000FFFFFFFB4302590A4300C20F1B0E0020A3
:10A0C0007E2B0EDD9D2B0DDC802000040143952BA3
:10A0D0000BDC9620C31AD9400B005842002A00D14D
:10A0E00018007047034BD018FBE7963B99400B00D4
:10A0F000F3E7C046FFFFFF7F70B5002830D0C317DD
:10A10000C5185D40C40F280000F07CF89E231B1A80
:10A11000962B0DDC9622D21A95406A02520AD8B2CA
:10A120005202C005520AE40702432243100070BDE8
:10A13000992B19DC9922D21A9540124A2A406907B4
:10A1400004D00F210D40042D00D00432510103D55D
:10A150000C4B1A409F231B1A9201520AD8B2DFE718
:10A16000002400200022DBE705222E00121AB9216C
:10A17000D6402A00C91A8A40551EAA413500154307
:10A18000DBE7C046FFFFFFFB70B5041E28D000F0E0
:10A1900039F89E231B1A962B0ADC9622D21A944079
:10A1A0006202520AD8B25202520AC005104370BD70
:10A1B000992B18DC9922D21A9440114A2240610747
:10A1C00004D00F210C40042C00D00432510103D5DF
:10A1D0000B4B1A409F231B1A9201520AD8B2E2E796
:10A1E00000200022DFE705222500121AB921D54000
:10A1F0002200C91A8A40541EA2412C001443DCE7F5
:10A20000FFFFFFFB1C2101231B04984201D3000C1C
:10A2100010391B0A984201D3000A08391B099842D9
:10A2200001D30009043902A2105C40187047C046EF
:10A23000040302020101010100000000000000000F
:10A24000084B10B50400002B02D0002100E000BF35
:10A25000054B1868836A002B00D09847200000F057
:10A26000C5FAC04600000000E4AE01000E4B70B518
:10A2700000251E000D4CE41AA410A54204D0AB002A
:10A28000F35898470135F8E700F05CFC084B0025CF
:10A290001E00084CE41AA410A54204D0AB00F358E9
:10A2A00098470135F8E770BD78200020782000201D
:10A2B000782000209020002010B5034B0100186882
:10A2C00000F05AF810BDC0466820002010B5034BBE
:10A2D0000100186800F004F810BDC0466820002096
:10A2E00070B50500002944D00C1F2368002B00DA4C
:10A2F000E418280000F024FC1E4A13681100002B0B
:10A3000002D16360146031E0A3420DD92268A01825
:10A31000834203D118685B688218226063600C6016
:10A3200024E0A24203D813005A68002AF9D11E681B
:10A330009819A0420BD121687118581819608242EF
:10A3400014D110685268411819605A600EE0A0429A
:10A3500002D90C232B6009E021686018824203D1E6
:10A36000106852684118216062605C60280000F04B
:10A37000E8FB70BDD4210020032370B5CD1C9D43A4
:10A38000083506000C2D01D20C2501E0002D01DB63
:10A39000A94202D90C23336048E0300000F0D0FB22
:10A3A000234B1C681A002100002913D00B685B1B8B
:10A3B0000DD40B2B02D90B60CC181EE08C4202D1BD
:10A3C000636813601AE04B6863600C0016E00C00D1
:10A3D0004968E9E7174C2368002B03D1300000F0EF
:10A3E0002BF820602900300000F026F8431C18D01C
:10A3F0000323C41C9C43A0420DD12560300000F013
:10A40000A0FB200007220B30231D9043C31A0ED05F
:10A410005A42E2500BE0211A300000F00DF8431CC4
:10A42000EBD10C233000336000F08BFB002070BDBB
:10A43000D4210020D0210020002370B5064C050057
:10A4400008002360FEF746FB431C03D12368002B62
:10A4500000D02B6070BDC046E421002010B5034B36
:10A460000100186800F03EFB10BDC04668200020C7
:10A47000002370B5064C050008001100236000F0B1
:10A4800011F8431C03D12368002B00D02B6070BD52
:10A49000E421002058220120014B40421A607047FD
:10A4A000E421002058220120014B40421A607047ED
:10A4B000E42100207047704710B50400FDF76CFEE2
:10A4C0002000FEF799F8200010BDC369C1681A6822
:10A4D000431C114215D0DA7F002A01D0013ADA7705
:10A4E000DB7F082B05D90122837913420ED1134358
:10A4F00005E0012B0AD88379DB0707D50023837198
:10A5000004E0DA7F0B2AEBD80132E8E77047012339
:10A51000807918407047704710B50400FEF76CF85A
:10A52000200010BD70B50425837904002B420DD1A5
:10A53000FDF76EFE0820FEF73DF80C21060061567F
:10A54000FEF70CFBA379A6602B43A371A068FEF76E
:10A550002DFB70BD10B5837904001B0706D58068FC
:10A5600000F0C0F80C23E35683420CD02000FDF726
:10A570004FFE0C2001212056FEF738F90822A3795E
:10A58000A0601343A37110BD10B518C96210E10794
:10A5900001D58158CB588018984710BD10B50400DC
:10A5A000FDF716FF2000FEF727F8200010BD10B5BC
:10A5B0000400FDF7FFFE2000FEF71EF8200010BD8E
:10A5C00010B5040094342378002B04D0303000F010
:10A5D000A2F80023237010BD10B504009534237831
:10A5E000002B04D0603000F096F80023237010BDDB
:10A5F00010B5040098342368826A934207D0197812
:10A600001430FDF725FE23680133236001E0FFF7D6
:10A61000E3FF10BD10B50400FDF75CFF2000FDF75F
:10A62000EBFF200010BD4923C16810B599430A0013
:10A6300083685B7C5BB29A4003694068590380235E
:10A64000DB011940114300F010FA10BD0300F0B512
:10A650008208980702D1181E01D137E00132541C3C
:10A6600072B6802621C93606A84217D20368002B8D
:10A6700011DA5B005B08990041180F68002F08DAB7
:10A68000A94206D231007F007F08DB19194301601F
:10A69000F1E7A34205D29B00C018E5E762B60020AF
:10A6A00014E00232934203D992008218954204D8F2
:10A6B00003685B005B08036006E080211B1B090642
:10A6C000043A0B431360046062B60430F0BD70B509
:10A6D0000D0001210400027841562800FEF75CF8C5
:10A6E000657070BD407840B2704710B50400436893
:10A6F0004269991800F05EF8E36A002B04D1A3695F
:10A70000002B07D0984705E0A069002802D021005F
:10A710001C31984710BD10B5040000F053F8002319
:10A72000A361E36210BD70B50D00040000F04AF8AB
:10A730006561206900F03BF92918200000F03AF823
:10A7400070BD036810B50400002B05D1C06800F08F
:10A750002EF901236060236010BD10B5040000686D
:10A76000002804D0E06800F022F96368C01A10BD28
:10A7700010B58468FFF7F1FF201810BD10B5040074
:10A78000C06800F014F900236060A36010BD0023CE
:10A7900010B50360436083600400FEF7AFF9E0602A
:10A7A0002000FFF7EBFF200010BD10B503689B6889
:10A7B000984710BD10B50A000300011D006900F0A4
:10A7C000BEF810BD10B5011D006900F0D4F810BD31
:10A7D00010B50120FFF734FD7047704710B5FFF743
:10A7E000FCFFFFF7F9FFFDF745FD10BD10B5002890
:10A7F00001D000F001F8FEE700B59BB0032102A8EC
:10A8000000F06DF8022108A800F069F801210EA8F7
:10A8100000F065F8102114A800F061F8059B039A78
:10A8200096201A60099A0C9B1A600F9A129B1A6064
:10A83000159A179B01921A6000F0C9F8069B039ABB
:10A8400096201A60099A0B9B1A600F9A119B01922D
:10A850001A60159A189B1A6000F0B9F8DEE70FB479
:10A86000012010B5FFF7ECFC70B50D0004001600D8
:10A87000FEF7C0F96B1C07D00021200000F0B4F8EF
:10A880003100200000F0AAF870BD70B543680400E4
:10A890000D00002A01D0C26800E0026913602000A8
:10A8A000012100F0A1F82900200000F097F870BD08
:10A8B00010B50322FFF7D8FF10BD10B5FFF7D4FF86
:10A8C00010BD70B50D0004001600FEF793F96B1C67
:10A8D00004D0320000212000FFF7D7FF70BD10B573
:10A8E0000022FFF7EEFF10BD70B504000D000368F5
:10A8F0001B68984763681D6070BD036870B5DB68AE
:10A900000400984763685A682368002A02D19B684C
:10A91000984713E05B681568984763682D1A5A6872
:10A92000002D07DC916859601B68002BEAD0506845
:10A930009847E7E7236810681B69984770BD70B5B2
:10A940000D0072B64B60002346680A607468002CE4
:10A9500005D02168511A02D42300A468F7E7002B20
:10A9600005D1036875601B691000984700E09D6081
:10A97000AC6062B670BD10B572B6426853688B4267
:10A980000CD19B6853600268002B02D193689847F2
:10A990000BE012691868904707E01300002B04D001
:10A9A0009A689142F9D18A689A6062B610BD10B572
:10A9B00003685B68984710BD70B50400FEF7F2FBB2
:10A9C0000500FEF7EFFB401BA042FAD370BDFA234F
:10A9D00010B59B005843FFF7EFFF10BD10B500788E
:10A9E00040B200F00EF810BD002901D0012907D1B6
:10A9F0000023A022C356D205C133FF339B009950D8
:10AA00007047A0238000DB05C018E02310B50C249C
:10AA1000DB00C2588900A243C250C2581143C15042
:10AA200010BD30B5002903D001291DD1002311E04C
:10AA300001220C0013008B4005691D4203D00568FC
:10AA40008B00EB181C6001311F29F3D10CE001339E
:10AA50001F2B09D00A009A4004691442F7D00468F9
:10AA60009A00A2181160F2E730BD426800691368CD
:10AA700059400140594011607047704770470023AA
:10AA8000CB565A1C05D0834201D1486802E00C31F4
:10AA9000F5E71800704710B500F000F810B5062073
:10AAA000FFF7DCFC0120FFF7A1FE10B5884202D9B8
:10AAB0008B18984201D3002305E09B1A013A08D372
:10AAC000995C8154FAE7934203D0CC5CC4540133BF
:10AAD000F9E710BD03008218934202D019700133C8
:10AAE000FAE7704770B504000D001F2904D916233A
:10AAF0000360012040421EE0426C002A04D08B001B
:10AB0000D2181368002B08D1200000F015F82A0095
:10AB100001002000FFF7ACFC0DE00020012B0AD063
:10AB2000591C03D117332360013004E000242800AE
:10AB300014609847200070BD10B5FFF7ABFC10BD46
:10AB400070477047F8B5C046F8BC08BC9E467047D1
:10AB5000F8B5C046F8BC08BC9E467047000000002F
:10AB600000000000CBA40100B7A4010099810100FE
:10AB7000B9A401000000000000000000B5A401001D
:10AB8000B7A4010017A5010019A5010005000000E8
:10AB90000500000003000000090000000D04000093
:10ABA000E8AE01000000000000000000D1830100B9
:10ABB0009DA501000000000000000000D5840100F8
:10ABC00015A601000000000000000000B583010090
:10ABD000AFA50100EBA6010000000000000000008E
:10ABE0000000000000000000D1A701001991010041
:10ABF000A59101007BAA01007DAA0100BD91010081
:10AC0000ECAB0100182100200100000000700040A2
:10AC10000400000002000000007000400800000076
:10AC2000030000000070004010000000040000005D
:10AC3000007000402000000005000000007000408F
:10AC4000400000000600000000700040800000008E
:10AC5000FF000000FFFFFFFF0000000000000000F9
:10AC600000000000010000000100000000000000E2
:10AC700001000000020000000000000001000000D0
:10AC800003000000000000000100000004000000BC
:10AC900000000000010000000500000000000000AE
:10ACA000010000000600000000000000010000009C
:10ACB0000700000000000000010000000800000084
:10ACC000000000000100000009000000000000007A
:10ACD000010000000A000000000000000100000068
:10ACE0000B00000000000000010000000C0000004C
:10ACF00000000000010000000D0000000000000046
:10AD0000010000000E000000000000000100000033
:10AD10000F00000000000000010000001000000013
:10AD20000000000001000000110000000000000011
:10AD300001000000120000000000000001000000FF
:10AD400013000000000000000100000014000000DB
:10AD500000000000010000001500000000000000DD
:10AD600001000000160000000000000001000000CB
:10AD700017000000000000000100000018000000A3
:10AD800000000000010000001900000000000000A9
:10AD9000010000001C000000000000000100000095
:10ADA0001D00000000000000010000001E00000067
:10ADB0000000000001000000FF000000FFFFFFFF97
:10ADC000000000003E9901006298010020990100F6
:10ADD000F898010020990100EC98010020990100E9
:10ADE000F89801006298010062980100EC98010057
:10ADF000F8980100A4990100A4990100A499010008
:10AE00002699010062980100629801000C990100E6
:10AE1000F69801000C990100EC9801000C990100D2
:10AE2000F69801006298010062980100EC98010018
:10AE3000F6980100A4990100A4990100A4990100C9
:10AE4000B09901009C9C0100FA9B0100FA9B010053
:10AE5000F89B01008E9C01008E9C0100849C0100E7
:10AE6000F89B01008E9C0100849C01008E9C0100D7
:10AE7000F89B0100949C0100949C0100949C0100AB
:10AE80001E9D010000000000000000000000000006
:10AE900000000000000000000000000000000000B2
:10AEA00000000000000000000000000000000000A2
:10AEB0000000000000000000000000000000000092
:10AEC0000000000000000000000000000000000082
:10AED0000000000000000000000000000000000072
:10AEE000000000000820002000000402020402000C
:10AEF0000002040404000202000404030100000133
:10AF0000030303000101020303040201010301041E
:10AF10000301000300000401010200000302766542
:10AF200063746F723A3A5F4D5F656D706C61636513
:10AF30005F6261636B5F6175780000000402020468
:10AF400002000002040404000202000404030100E1
:10AF500000010303030001010203030402010103D2
:10AF600001040301000300000401010200000302C8
:10AF70001B1B000E11000000000008080800080A52
:10AF80004A4000000A5FEA5FEA0ED92ED36E1932FA
:10AF90004489330C924C924D080800000004880844
:10AFA00008040804848488000A448A4000048EC48B
:10AFB00080000000048800000EC0000000000800AF
:10AFC00001224488100C9252524C048C84848E1CB2
:10AFD000824C901E1EC244924C06CA525FE21FF081
:10AFE0001EC13E02448ED12E1FE24488100ED12E87
:10AFF000D12E0ED12EC48800080008000004800461
:10B00000880244880482000EC00EC008048244886E
:10B010000ED126C0040ED135B36C0C925ED2521CF8
:10B02000925C925C0ED010100E1C9252525C1ED09C
:10B030001C901E1ED01C90100ED013712E12525E4A
:10B04000D2521C8808081C1FE242524C1254981419
:10B0500092101010101E113B75B131113935B371BA
:10B060000C9252524C1C925C90100C92524C861CCA
:10B07000925C92510ED00C825C1FE4848484125244
:10B0800052524C1131312A44113135BB7112524C9C
:10B090009252112A4484841EC488101E0EC80808C7
:10B0A0000E10080482410EC242424E048A40000043
:10B0B000000000001F0804800000000ED2524F1054
:10B0C000101C925C000ED0100E02424ED24E0C921A
:10B0D0005C900E06C81C88080ED24EC24C10101C84
:10B0E00092520800080808024002424C10149814BA
:10B0F000920808080806001B75B131001C925252D4
:10B10000000C92524C001C925C90000ED24EC20079
:10B110000ED010100006C8049808080EC8070012C8
:10B1200052524F0011312A4400113135BB00124CEC
:10B130008C9200112A4498001EC4881E06C48C8478
:10B1400086080808080818080C881800000C836096
:10B1500050776D4F75742070696E206D61707069E5
:10B160006E67206661696C65642E20416C6C20619D
:10B170007661696C61626C652050574D206368612F
:10B180006E6E656C732061726520696E20757365E3
:10B190002E00636F756C64206E6F742070696E6F23
:10B1A00075740070696E6D6170206D69732D6D61CD
:10B1B0007463680070696E6D6170206E6F742066D4
:10B1C0006F756E6420666F72207065726970686555
:10B1D00072616C0070696E6D6170206E6F742066B4
:10B1E0006F756E6420666F722066756E6374696F2A
:08B1F0006E00430000000000A6
:08B1F80028CFFF7F01000000D9
:10B2000075AF0100E82100200000000084AE0100BD
:10B21000A4AE0100C4AE0100000000000000000068
:10B220000000000000000000F2B10100000000007A
:10B23000000000000000000000000000000000000E
:10B2400000000000000000000000000000000000FE
:10B2500000000000000000000000000000000000EE
:10B2600000000000000000000820002088130100FA
:10B270000100010004000000E9800100798A01005A
:10B28000E1920100A593010029940100AD94010011
:04B29000C180010078
:0400000310008B1549
:00000001FF
